{
	"data": {
		"bytecode": {
			"linkReferences": {},
			"object": "608060405234801561000f575f80fd5b506103468061001d5f395ff3fe608060405234801561000f575f80fd5b506004361061003f575f3560e01c8063371cf61114610043578063493927621461005f57806397ace1711461007b575b5f80fd5b61005d6004803603810190610058919061017d565b610099565b005b6100796004803603810190610074919061017d565b6100a2565b005b61008361013e565b60405161009091906101b7565b60405180910390f35b805f8190555050565b5f8054116100e5576040517f08c379a00000000000000000000000000000000000000000000000000000000081526004016100dc9061022a565b60405180910390fd5b805f541015610129576040517f08c379a000000000000000000000000000000000000000000000000000000000815260040161012090610292565b60405180910390fd5b805f5461013691906102dd565b5f8190555050565b5f8054905090565b5f80fd5b5f819050919050565b61015c8161014a565b8114610166575f80fd5b50565b5f8135905061017781610153565b92915050565b5f6020828403121561019257610191610146565b5b5f61019f84828501610169565b91505092915050565b6101b18161014a565b82525050565b5f6020820190506101ca5f8301846101a8565b92915050565b5f82825260208201905092915050565b7f4e6f2043686f636f6c61746573000000000000000000000000000000000000005f82015250565b5f610214600d836101d0565b915061021f826101e0565b602082019050919050565b5f6020820190508181035f83015261024181610208565b9050919050565b7f427579204c6573732043686f636f6c61746573000000000000000000000000005f82015250565b5f61027c6013836101d0565b915061028782610248565b602082019050919050565b5f6020820190508181035f8301526102a981610270565b9050919050565b7f4e487b71000000000000000000000000000000000000000000000000000000005f52601160045260245ffd5b5f6102e78261014a565b91506102f28361014a565b925082820390508181111561030a576103096102b0565b5b9291505056fea264697066735822122097fd2ed7475f7f8a294a0e1db12d7622db1b30d218366457e849c8379516ca5d64736f6c63430008150033",
			"opcodes": "PUSH1 0x80 PUSH1 0x40 MSTORE CALLVALUE DUP1 ISZERO PUSH2 0xF JUMPI PUSH0 DUP1 REVERT JUMPDEST POP PUSH2 0x346 DUP1 PUSH2 0x1D PUSH0 CODECOPY PUSH0 RETURN INVALID PUSH1 0x80 PUSH1 0x40 MSTORE CALLVALUE DUP1 ISZERO PUSH2 0xF JUMPI PUSH0 DUP1 REVERT JUMPDEST POP PUSH1 0x4 CALLDATASIZE LT PUSH2 0x3F JUMPI PUSH0 CALLDATALOAD PUSH1 0xE0 SHR DUP1 PUSH4 0x371CF611 EQ PUSH2 0x43 JUMPI DUP1 PUSH4 0x49392762 EQ PUSH2 0x5F JUMPI DUP1 PUSH4 0x97ACE171 EQ PUSH2 0x7B JUMPI JUMPDEST PUSH0 DUP1 REVERT JUMPDEST PUSH2 0x5D PUSH1 0x4 DUP1 CALLDATASIZE SUB DUP2 ADD SWAP1 PUSH2 0x58 SWAP2 SWAP1 PUSH2 0x17D JUMP JUMPDEST PUSH2 0x99 JUMP JUMPDEST STOP JUMPDEST PUSH2 0x79 PUSH1 0x4 DUP1 CALLDATASIZE SUB DUP2 ADD SWAP1 PUSH2 0x74 SWAP2 SWAP1 PUSH2 0x17D JUMP JUMPDEST PUSH2 0xA2 JUMP JUMPDEST STOP JUMPDEST PUSH2 0x83 PUSH2 0x13E JUMP JUMPDEST PUSH1 0x40 MLOAD PUSH2 0x90 SWAP2 SWAP1 PUSH2 0x1B7 JUMP JUMPDEST PUSH1 0x40 MLOAD DUP1 SWAP2 SUB SWAP1 RETURN JUMPDEST DUP1 PUSH0 DUP2 SWAP1 SSTORE POP POP JUMP JUMPDEST PUSH0 DUP1 SLOAD GT PUSH2 0xE5 JUMPI PUSH1 0x40 MLOAD PUSH32 0x8C379A000000000000000000000000000000000000000000000000000000000 DUP2 MSTORE PUSH1 0x4 ADD PUSH2 0xDC SWAP1 PUSH2 0x22A JUMP JUMPDEST PUSH1 0x40 MLOAD DUP1 SWAP2 SUB SWAP1 REVERT JUMPDEST DUP1 PUSH0 SLOAD LT ISZERO PUSH2 0x129 JUMPI PUSH1 0x40 MLOAD PUSH32 0x8C379A000000000000000000000000000000000000000000000000000000000 DUP2 MSTORE PUSH1 0x4 ADD PUSH2 0x120 SWAP1 PUSH2 0x292 JUMP JUMPDEST PUSH1 0x40 MLOAD DUP1 SWAP2 SUB SWAP1 REVERT JUMPDEST DUP1 PUSH0 SLOAD PUSH2 0x136 SWAP2 SWAP1 PUSH2 0x2DD JUMP JUMPDEST PUSH0 DUP2 SWAP1 SSTORE POP POP JUMP JUMPDEST PUSH0 DUP1 SLOAD SWAP1 POP SWAP1 JUMP JUMPDEST PUSH0 DUP1 REVERT JUMPDEST PUSH0 DUP2 SWAP1 POP SWAP2 SWAP1 POP JUMP JUMPDEST PUSH2 0x15C DUP2 PUSH2 0x14A JUMP JUMPDEST DUP2 EQ PUSH2 0x166 JUMPI PUSH0 DUP1 REVERT JUMPDEST POP JUMP JUMPDEST PUSH0 DUP2 CALLDATALOAD SWAP1 POP PUSH2 0x177 DUP2 PUSH2 0x153 JUMP JUMPDEST SWAP3 SWAP2 POP POP JUMP JUMPDEST PUSH0 PUSH1 0x20 DUP3 DUP5 SUB SLT ISZERO PUSH2 0x192 JUMPI PUSH2 0x191 PUSH2 0x146 JUMP JUMPDEST JUMPDEST PUSH0 PUSH2 0x19F DUP5 DUP3 DUP6 ADD PUSH2 0x169 JUMP JUMPDEST SWAP2 POP POP SWAP3 SWAP2 POP POP JUMP JUMPDEST PUSH2 0x1B1 DUP2 PUSH2 0x14A JUMP JUMPDEST DUP3 MSTORE POP POP JUMP JUMPDEST PUSH0 PUSH1 0x20 DUP3 ADD SWAP1 POP PUSH2 0x1CA PUSH0 DUP4 ADD DUP5 PUSH2 0x1A8 JUMP JUMPDEST SWAP3 SWAP2 POP POP JUMP JUMPDEST PUSH0 DUP3 DUP3 MSTORE PUSH1 0x20 DUP3 ADD SWAP1 POP SWAP3 SWAP2 POP POP JUMP JUMPDEST PUSH32 0x4E6F2043686F636F6C6174657300000000000000000000000000000000000000 PUSH0 DUP3 ADD MSTORE POP JUMP JUMPDEST PUSH0 PUSH2 0x214 PUSH1 0xD DUP4 PUSH2 0x1D0 JUMP JUMPDEST SWAP2 POP PUSH2 0x21F DUP3 PUSH2 0x1E0 JUMP JUMPDEST PUSH1 0x20 DUP3 ADD SWAP1 POP SWAP2 SWAP1 POP JUMP JUMPDEST PUSH0 PUSH1 0x20 DUP3 ADD SWAP1 POP DUP2 DUP2 SUB PUSH0 DUP4 ADD MSTORE PUSH2 0x241 DUP2 PUSH2 0x208 JUMP JUMPDEST SWAP1 POP SWAP2 SWAP1 POP JUMP JUMPDEST PUSH32 0x427579204C6573732043686F636F6C6174657300000000000000000000000000 PUSH0 DUP3 ADD MSTORE POP JUMP JUMPDEST PUSH0 PUSH2 0x27C PUSH1 0x13 DUP4 PUSH2 0x1D0 JUMP JUMPDEST SWAP2 POP PUSH2 0x287 DUP3 PUSH2 0x248 JUMP JUMPDEST PUSH1 0x20 DUP3 ADD SWAP1 POP SWAP2 SWAP1 POP JUMP JUMPDEST PUSH0 PUSH1 0x20 DUP3 ADD SWAP1 POP DUP2 DUP2 SUB PUSH0 DUP4 ADD MSTORE PUSH2 0x2A9 DUP2 PUSH2 0x270 JUMP JUMPDEST SWAP1 POP SWAP2 SWAP1 POP JUMP JUMPDEST PUSH32 0x4E487B7100000000000000000000000000000000000000000000000000000000 PUSH0 MSTORE PUSH1 0x11 PUSH1 0x4 MSTORE PUSH1 0x24 PUSH0 REVERT JUMPDEST PUSH0 PUSH2 0x2E7 DUP3 PUSH2 0x14A JUMP JUMPDEST SWAP2 POP PUSH2 0x2F2 DUP4 PUSH2 0x14A JUMP JUMPDEST SWAP3 POP DUP3 DUP3 SUB SWAP1 POP DUP2 DUP2 GT ISZERO PUSH2 0x30A JUMPI PUSH2 0x309 PUSH2 0x2B0 JUMP JUMPDEST JUMPDEST SWAP3 SWAP2 POP POP JUMP INVALID LOG2 PUSH5 0x6970667358 0x22 SLT KECCAK256 SWAP8 REVERT 0x2E 0xD7 SELFBALANCE PUSH0 PUSH32 0x8A294A0E1DB12D7622DB1B30D218366457E849C8379516CA5D64736F6C634300 ADDMOD ISZERO STOP CALLER "
		},
		"gasEstimates": {
			"creation": {
				"codeDepositCost": "167600",
				"executionCost": "212",
				"totalCost": "167812"
			},
			"external": {
				"buyChocolates(uint256)": "22492",
				"chocolatesInBag()": "2454",
				"sellChocolates(uint256)": "infinite"
			}
		},
		"methodIdentifiers": {
			"buyChocolates(uint256)": "371cf611",
			"chocolatesInBag()": "97ace171",
			"sellChocolates(uint256)": "49392762"
		}
	},
	"abi": [
		{
			"inputs": [
				{
					"internalType": "uint256",
					"name": "n",
					"type": "uint256"
				}
			],
			"name": "buyChocolates",
			"outputs": [],
			"stateMutability": "nonpayable",
			"type": "function"
		},
		{
			"inputs": [],
			"name": "chocolatesInBag",
			"outputs": [
				{
					"internalType": "uint256",
					"name": "n",
					"type": "uint256"
				}
			],
			"stateMutability": "view",
			"type": "function"
		},
		{
			"inputs": [
				{
					"internalType": "uint256",
					"name": "n",
					"type": "uint256"
				}
			],
			"name": "sellChocolates",
			"outputs": [],
			"stateMutability": "nonpayable",
			"type": "function"
		}
	]
}