{
	"DappWorld/easy/Pythagoras.sol": {
		"RightAngledTriangle": {
			"abi": [
				{
					"inputs": [
						{
							"internalType": "uint256",
							"name": "a",
							"type": "uint256"
						},
						{
							"internalType": "uint256",
							"name": "b",
							"type": "uint256"
						},
						{
							"internalType": "uint256",
							"name": "c",
							"type": "uint256"
						}
					],
					"name": "check",
					"outputs": [
						{
							"internalType": "bool",
							"name": "",
							"type": "bool"
						}
					],
					"stateMutability": "pure",
					"type": "function"
				}
			],
			"devdoc": {
				"kind": "dev",
				"methods": {},
				"version": 1
			},
			"evm": {
				"assembly": "    /* \"DappWorld/easy/Pythagoras.sol\":61:489  contract RightAngledTriangle {... */\n  mstore(0x40, 0x80)\n  callvalue\n  dup1\n  iszero\n  tag_1\n  jumpi\n  0x00\n  dup1\n  revert\ntag_1:\n  pop\n  dataSize(sub_0)\n  dup1\n  dataOffset(sub_0)\n  0x00\n  codecopy\n  0x00\n  return\nstop\n\nsub_0: assembly {\n        /* \"DappWorld/easy/Pythagoras.sol\":61:489  contract RightAngledTriangle {... */\n      mstore(0x40, 0x80)\n      callvalue\n      dup1\n      iszero\n      tag_1\n      jumpi\n      0x00\n      dup1\n      revert\n    tag_1:\n      pop\n      jumpi(tag_2, lt(calldatasize, 0x04))\n      shr(0xe0, calldataload(0x00))\n      dup1\n      0x4feb5714\n      eq\n      tag_3\n      jumpi\n    tag_2:\n      0x00\n      dup1\n      revert\n        /* \"DappWorld/easy/Pythagoras.sol\":178:486  function check(uint a, uint b, uint c) public pure returns (bool) {... */\n    tag_3:\n      tag_4\n      0x04\n      dup1\n      calldatasize\n      sub\n      dup2\n      add\n      swap1\n      tag_5\n      swap2\n      swap1\n      tag_6\n      jump\t// in\n    tag_5:\n      tag_7\n      jump\t// in\n    tag_4:\n      mload(0x40)\n      tag_8\n      swap2\n      swap1\n      tag_9\n      jump\t// in\n    tag_8:\n      mload(0x40)\n      dup1\n      swap2\n      sub\n      swap1\n      return\n    tag_7:\n        /* \"DappWorld/easy/Pythagoras.sol\":238:242  bool */\n      0x00\n        /* \"DappWorld/easy/Pythagoras.sol\":255:261  uint x */\n      dup1\n        /* \"DappWorld/easy/Pythagoras.sol\":264:265  a */\n      dup5\n        /* \"DappWorld/easy/Pythagoras.sol\":262:263  a */\n      dup6\n        /* \"DappWorld/easy/Pythagoras.sol\":262:265  a*a */\n      tag_11\n      swap2\n      swap1\n      tag_12\n      jump\t// in\n    tag_11:\n        /* \"DappWorld/easy/Pythagoras.sol\":255:265  uint x=a*a */\n      swap1\n      pop\n        /* \"DappWorld/easy/Pythagoras.sol\":276:282  uint y */\n      0x00\n        /* \"DappWorld/easy/Pythagoras.sol\":285:286  b */\n      dup5\n        /* \"DappWorld/easy/Pythagoras.sol\":283:284  b */\n      dup6\n        /* \"DappWorld/easy/Pythagoras.sol\":283:286  b*b */\n      tag_13\n      swap2\n      swap1\n      tag_12\n      jump\t// in\n    tag_13:\n        /* \"DappWorld/easy/Pythagoras.sol\":276:286  uint y=b*b */\n      swap1\n      pop\n        /* \"DappWorld/easy/Pythagoras.sol\":297:303  uint z */\n      0x00\n        /* \"DappWorld/easy/Pythagoras.sol\":306:307  c */\n      dup5\n        /* \"DappWorld/easy/Pythagoras.sol\":304:305  c */\n      dup6\n        /* \"DappWorld/easy/Pythagoras.sol\":304:307  c*c */\n      tag_14\n      swap2\n      swap1\n      tag_12\n      jump\t// in\n    tag_14:\n        /* \"DappWorld/easy/Pythagoras.sol\":297:307  uint z=c*c */\n      swap1\n      pop\n        /* \"DappWorld/easy/Pythagoras.sol\":326:327  0 */\n      0x00\n        /* \"DappWorld/easy/Pythagoras.sol\":323:324  x */\n      dup4\n        /* \"DappWorld/easy/Pythagoras.sol\":323:327  x==0 */\n      eq\n        /* \"DappWorld/easy/Pythagoras.sol\":323:335  x==0 || y==0 */\n      dup1\n      tag_15\n      jumpi\n      pop\n        /* \"DappWorld/easy/Pythagoras.sol\":334:335  0 */\n      0x00\n        /* \"DappWorld/easy/Pythagoras.sol\":331:332  y */\n      dup3\n        /* \"DappWorld/easy/Pythagoras.sol\":331:335  y==0 */\n      eq\n        /* \"DappWorld/easy/Pythagoras.sol\":323:335  x==0 || y==0 */\n    tag_15:\n        /* \"DappWorld/easy/Pythagoras.sol\":323:343  x==0 || y==0 || z==0 */\n      dup1\n      tag_16\n      jumpi\n      pop\n        /* \"DappWorld/easy/Pythagoras.sol\":342:343  0 */\n      0x00\n        /* \"DappWorld/easy/Pythagoras.sol\":339:340  z */\n      dup2\n        /* \"DappWorld/easy/Pythagoras.sol\":339:343  z==0 */\n      eq\n        /* \"DappWorld/easy/Pythagoras.sol\":323:343  x==0 || y==0 || z==0 */\n    tag_16:\n        /* \"DappWorld/easy/Pythagoras.sol\":320:478  if(x==0 || y==0 || z==0 )... */\n      iszero\n      tag_17\n      jumpi\n        /* \"DappWorld/easy/Pythagoras.sol\":362:367  false */\n      0x00\n        /* \"DappWorld/easy/Pythagoras.sol\":355:367  return false */\n      swap4\n      pop\n      pop\n      pop\n      pop\n      jump(tag_10)\n        /* \"DappWorld/easy/Pythagoras.sol\":320:478  if(x==0 || y==0 || z==0 )... */\n    tag_17:\n        /* \"DappWorld/easy/Pythagoras.sol\":392:393  y */\n      dup2\n        /* \"DappWorld/easy/Pythagoras.sol\":390:391  x */\n      dup4\n        /* \"DappWorld/easy/Pythagoras.sol\":390:393  x+y */\n      tag_19\n      swap2\n      swap1\n      tag_20\n      jump\t// in\n    tag_19:\n        /* \"DappWorld/easy/Pythagoras.sol\":386:387  z */\n      dup2\n        /* \"DappWorld/easy/Pythagoras.sol\":386:394  z==(x+y) */\n      eq\n        /* \"DappWorld/easy/Pythagoras.sol\":386:406  z==(x+y) || x==(y+z) */\n      dup1\n      tag_21\n      jumpi\n      pop\n        /* \"DappWorld/easy/Pythagoras.sol\":404:405  z */\n      dup1\n        /* \"DappWorld/easy/Pythagoras.sol\":402:403  y */\n      dup3\n        /* \"DappWorld/easy/Pythagoras.sol\":402:405  y+z */\n      tag_22\n      swap2\n      swap1\n      tag_20\n      jump\t// in\n    tag_22:\n        /* \"DappWorld/easy/Pythagoras.sol\":398:399  x */\n      dup4\n        /* \"DappWorld/easy/Pythagoras.sol\":398:406  x==(y+z) */\n      eq\n        /* \"DappWorld/easy/Pythagoras.sol\":386:406  z==(x+y) || x==(y+z) */\n    tag_21:\n        /* \"DappWorld/easy/Pythagoras.sol\":386:418  z==(x+y) || x==(y+z) || y==(x+z) */\n      dup1\n      tag_23\n      jumpi\n      pop\n        /* \"DappWorld/easy/Pythagoras.sol\":416:417  z */\n      dup1\n        /* \"DappWorld/easy/Pythagoras.sol\":414:415  x */\n      dup4\n        /* \"DappWorld/easy/Pythagoras.sol\":414:417  x+z */\n      tag_24\n      swap2\n      swap1\n      tag_20\n      jump\t// in\n    tag_24:\n        /* \"DappWorld/easy/Pythagoras.sol\":410:411  y */\n      dup3\n        /* \"DappWorld/easy/Pythagoras.sol\":410:418  y==(x+z) */\n      eq\n        /* \"DappWorld/easy/Pythagoras.sol\":386:418  z==(x+y) || x==(y+z) || y==(x+z) */\n    tag_23:\n        /* \"DappWorld/easy/Pythagoras.sol\":383:478  if(z==(x+y) || x==(y+z) || y==(x+z))... */\n      iszero\n      tag_25\n      jumpi\n        /* \"DappWorld/easy/Pythagoras.sol\":436:440  true */\n      0x01\n        /* \"DappWorld/easy/Pythagoras.sol\":429:440  return true */\n      swap4\n      pop\n      pop\n      pop\n      pop\n      jump(tag_10)\n        /* \"DappWorld/easy/Pythagoras.sol\":383:478  if(z==(x+y) || x==(y+z) || y==(x+z))... */\n    tag_25:\n        /* \"DappWorld/easy/Pythagoras.sol\":473:478  false */\n      0x00\n        /* \"DappWorld/easy/Pythagoras.sol\":466:478  return false */\n      swap4\n      pop\n      pop\n      pop\n      pop\n        /* \"DappWorld/easy/Pythagoras.sol\":178:486  function check(uint a, uint b, uint c) public pure returns (bool) {... */\n    tag_10:\n      swap4\n      swap3\n      pop\n      pop\n      pop\n      jump\t// out\n        /* \"#utility.yul\":88:205   */\n    tag_28:\n        /* \"#utility.yul\":197:198   */\n      0x00\n        /* \"#utility.yul\":194:195   */\n      dup1\n        /* \"#utility.yul\":187:199   */\n      revert\n        /* \"#utility.yul\":334:411   */\n    tag_30:\n        /* \"#utility.yul\":371:378   */\n      0x00\n        /* \"#utility.yul\":400:405   */\n      dup2\n        /* \"#utility.yul\":389:405   */\n      swap1\n      pop\n        /* \"#utility.yul\":334:411   */\n      swap2\n      swap1\n      pop\n      jump\t// out\n        /* \"#utility.yul\":417:539   */\n    tag_31:\n        /* \"#utility.yul\":490:514   */\n      tag_42\n        /* \"#utility.yul\":508:513   */\n      dup2\n        /* \"#utility.yul\":490:514   */\n      tag_30\n      jump\t// in\n    tag_42:\n        /* \"#utility.yul\":483:488   */\n      dup2\n        /* \"#utility.yul\":480:515   */\n      eq\n        /* \"#utility.yul\":470:533   */\n      tag_43\n      jumpi\n        /* \"#utility.yul\":529:530   */\n      0x00\n        /* \"#utility.yul\":526:527   */\n      dup1\n        /* \"#utility.yul\":519:531   */\n      revert\n        /* \"#utility.yul\":470:533   */\n    tag_43:\n        /* \"#utility.yul\":417:539   */\n      pop\n      jump\t// out\n        /* \"#utility.yul\":545:684   */\n    tag_32:\n        /* \"#utility.yul\":591:596   */\n      0x00\n        /* \"#utility.yul\":629:635   */\n      dup2\n        /* \"#utility.yul\":616:636   */\n      calldataload\n        /* \"#utility.yul\":607:636   */\n      swap1\n      pop\n        /* \"#utility.yul\":645:678   */\n      tag_45\n        /* \"#utility.yul\":672:677   */\n      dup2\n        /* \"#utility.yul\":645:678   */\n      tag_31\n      jump\t// in\n    tag_45:\n        /* \"#utility.yul\":545:684   */\n      swap3\n      swap2\n      pop\n      pop\n      jump\t// out\n        /* \"#utility.yul\":690:1309   */\n    tag_6:\n        /* \"#utility.yul\":767:773   */\n      0x00\n        /* \"#utility.yul\":775:781   */\n      dup1\n        /* \"#utility.yul\":783:789   */\n      0x00\n        /* \"#utility.yul\":832:834   */\n      0x60\n        /* \"#utility.yul\":820:829   */\n      dup5\n        /* \"#utility.yul\":811:818   */\n      dup7\n        /* \"#utility.yul\":807:830   */\n      sub\n        /* \"#utility.yul\":803:835   */\n      slt\n        /* \"#utility.yul\":800:919   */\n      iszero\n      tag_47\n      jumpi\n        /* \"#utility.yul\":838:917   */\n      tag_48\n      tag_28\n      jump\t// in\n    tag_48:\n        /* \"#utility.yul\":800:919   */\n    tag_47:\n        /* \"#utility.yul\":958:959   */\n      0x00\n        /* \"#utility.yul\":983:1036   */\n      tag_49\n        /* \"#utility.yul\":1028:1035   */\n      dup7\n        /* \"#utility.yul\":1019:1025   */\n      dup3\n        /* \"#utility.yul\":1008:1017   */\n      dup8\n        /* \"#utility.yul\":1004:1026   */\n      add\n        /* \"#utility.yul\":983:1036   */\n      tag_32\n      jump\t// in\n    tag_49:\n        /* \"#utility.yul\":973:1036   */\n      swap4\n      pop\n        /* \"#utility.yul\":929:1046   */\n      pop\n        /* \"#utility.yul\":1085:1087   */\n      0x20\n        /* \"#utility.yul\":1111:1164   */\n      tag_50\n        /* \"#utility.yul\":1156:1163   */\n      dup7\n        /* \"#utility.yul\":1147:1153   */\n      dup3\n        /* \"#utility.yul\":1136:1145   */\n      dup8\n        /* \"#utility.yul\":1132:1154   */\n      add\n        /* \"#utility.yul\":1111:1164   */\n      tag_32\n      jump\t// in\n    tag_50:\n        /* \"#utility.yul\":1101:1164   */\n      swap3\n      pop\n        /* \"#utility.yul\":1056:1174   */\n      pop\n        /* \"#utility.yul\":1213:1215   */\n      0x40\n        /* \"#utility.yul\":1239:1292   */\n      tag_51\n        /* \"#utility.yul\":1284:1291   */\n      dup7\n        /* \"#utility.yul\":1275:1281   */\n      dup3\n        /* \"#utility.yul\":1264:1273   */\n      dup8\n        /* \"#utility.yul\":1260:1282   */\n      add\n        /* \"#utility.yul\":1239:1292   */\n      tag_32\n      jump\t// in\n    tag_51:\n        /* \"#utility.yul\":1229:1292   */\n      swap2\n      pop\n        /* \"#utility.yul\":1184:1302   */\n      pop\n        /* \"#utility.yul\":690:1309   */\n      swap3\n      pop\n      swap3\n      pop\n      swap3\n      jump\t// out\n        /* \"#utility.yul\":1315:1405   */\n    tag_33:\n        /* \"#utility.yul\":1349:1356   */\n      0x00\n        /* \"#utility.yul\":1392:1397   */\n      dup2\n        /* \"#utility.yul\":1385:1398   */\n      iszero\n        /* \"#utility.yul\":1378:1399   */\n      iszero\n        /* \"#utility.yul\":1367:1399   */\n      swap1\n      pop\n        /* \"#utility.yul\":1315:1405   */\n      swap2\n      swap1\n      pop\n      jump\t// out\n        /* \"#utility.yul\":1411:1520   */\n    tag_34:\n        /* \"#utility.yul\":1492:1513   */\n      tag_54\n        /* \"#utility.yul\":1507:1512   */\n      dup2\n        /* \"#utility.yul\":1492:1513   */\n      tag_33\n      jump\t// in\n    tag_54:\n        /* \"#utility.yul\":1487:1490   */\n      dup3\n        /* \"#utility.yul\":1480:1514   */\n      mstore\n        /* \"#utility.yul\":1411:1520   */\n      pop\n      pop\n      jump\t// out\n        /* \"#utility.yul\":1526:1736   */\n    tag_9:\n        /* \"#utility.yul\":1613:1617   */\n      0x00\n        /* \"#utility.yul\":1651:1653   */\n      0x20\n        /* \"#utility.yul\":1640:1649   */\n      dup3\n        /* \"#utility.yul\":1636:1654   */\n      add\n        /* \"#utility.yul\":1628:1654   */\n      swap1\n      pop\n        /* \"#utility.yul\":1664:1729   */\n      tag_56\n        /* \"#utility.yul\":1726:1727   */\n      0x00\n        /* \"#utility.yul\":1715:1724   */\n      dup4\n        /* \"#utility.yul\":1711:1728   */\n      add\n        /* \"#utility.yul\":1702:1708   */\n      dup5\n        /* \"#utility.yul\":1664:1729   */\n      tag_34\n      jump\t// in\n    tag_56:\n        /* \"#utility.yul\":1526:1736   */\n      swap3\n      swap2\n      pop\n      pop\n      jump\t// out\n        /* \"#utility.yul\":1742:1922   */\n    tag_35:\n        /* \"#utility.yul\":1790:1867   */\n      0x4e487b7100000000000000000000000000000000000000000000000000000000\n        /* \"#utility.yul\":1787:1788   */\n      0x00\n        /* \"#utility.yul\":1780:1868   */\n      mstore\n        /* \"#utility.yul\":1887:1891   */\n      0x11\n        /* \"#utility.yul\":1884:1885   */\n      0x04\n        /* \"#utility.yul\":1877:1892   */\n      mstore\n        /* \"#utility.yul\":1911:1915   */\n      0x24\n        /* \"#utility.yul\":1908:1909   */\n      0x00\n        /* \"#utility.yul\":1901:1916   */\n      revert\n        /* \"#utility.yul\":1928:2338   */\n    tag_12:\n        /* \"#utility.yul\":1968:1975   */\n      0x00\n        /* \"#utility.yul\":1991:2011   */\n      tag_59\n        /* \"#utility.yul\":2009:2010   */\n      dup3\n        /* \"#utility.yul\":1991:2011   */\n      tag_30\n      jump\t// in\n    tag_59:\n        /* \"#utility.yul\":1986:2011   */\n      swap2\n      pop\n        /* \"#utility.yul\":2025:2045   */\n      tag_60\n        /* \"#utility.yul\":2043:2044   */\n      dup4\n        /* \"#utility.yul\":2025:2045   */\n      tag_30\n      jump\t// in\n    tag_60:\n        /* \"#utility.yul\":2020:2045   */\n      swap3\n      pop\n        /* \"#utility.yul\":2080:2081   */\n      dup3\n        /* \"#utility.yul\":2077:2078   */\n      dup3\n        /* \"#utility.yul\":2073:2082   */\n      mul\n        /* \"#utility.yul\":2102:2132   */\n      tag_61\n        /* \"#utility.yul\":2120:2131   */\n      dup2\n        /* \"#utility.yul\":2102:2132   */\n      tag_30\n      jump\t// in\n    tag_61:\n        /* \"#utility.yul\":2091:2132   */\n      swap2\n      pop\n        /* \"#utility.yul\":2281:2282   */\n      dup3\n        /* \"#utility.yul\":2272:2279   */\n      dup3\n        /* \"#utility.yul\":2268:2283   */\n      div\n        /* \"#utility.yul\":2265:2266   */\n      dup5\n        /* \"#utility.yul\":2262:2284   */\n      eq\n        /* \"#utility.yul\":2242:2243   */\n      dup4\n        /* \"#utility.yul\":2235:2244   */\n      iszero\n        /* \"#utility.yul\":2215:2298   */\n      or\n        /* \"#utility.yul\":2192:2331   */\n      tag_62\n      jumpi\n        /* \"#utility.yul\":2311:2329   */\n      tag_63\n      tag_35\n      jump\t// in\n    tag_63:\n        /* \"#utility.yul\":2192:2331   */\n    tag_62:\n        /* \"#utility.yul\":1976:2338   */\n      pop\n        /* \"#utility.yul\":1928:2338   */\n      swap3\n      swap2\n      pop\n      pop\n      jump\t// out\n        /* \"#utility.yul\":2344:2535   */\n    tag_20:\n        /* \"#utility.yul\":2384:2387   */\n      0x00\n        /* \"#utility.yul\":2403:2423   */\n      tag_65\n        /* \"#utility.yul\":2421:2422   */\n      dup3\n        /* \"#utility.yul\":2403:2423   */\n      tag_30\n      jump\t// in\n    tag_65:\n        /* \"#utility.yul\":2398:2423   */\n      swap2\n      pop\n        /* \"#utility.yul\":2437:2457   */\n      tag_66\n        /* \"#utility.yul\":2455:2456   */\n      dup4\n        /* \"#utility.yul\":2437:2457   */\n      tag_30\n      jump\t// in\n    tag_66:\n        /* \"#utility.yul\":2432:2457   */\n      swap3\n      pop\n        /* \"#utility.yul\":2480:2481   */\n      dup3\n        /* \"#utility.yul\":2477:2478   */\n      dup3\n        /* \"#utility.yul\":2473:2482   */\n      add\n        /* \"#utility.yul\":2466:2482   */\n      swap1\n      pop\n        /* \"#utility.yul\":2501:2504   */\n      dup1\n        /* \"#utility.yul\":2498:2499   */\n      dup3\n        /* \"#utility.yul\":2495:2505   */\n      gt\n        /* \"#utility.yul\":2492:2528   */\n      iszero\n      tag_67\n      jumpi\n        /* \"#utility.yul\":2508:2526   */\n      tag_68\n      tag_35\n      jump\t// in\n    tag_68:\n        /* \"#utility.yul\":2492:2528   */\n    tag_67:\n        /* \"#utility.yul\":2344:2535   */\n      swap3\n      swap2\n      pop\n      pop\n      jump\t// out\n\n    auxdata: 0xa2646970667358221220b628eb6048e8399f307a49bdbd29cd58b03290c4bd6e03af4531913ce4cf61b164736f6c63430008150033\n}\n",
				"bytecode": {
					"linkReferences": {},
					"object": "608060405234801561000f575f80fd5b5061029a8061001d5f395ff3fe608060405234801561000f575f80fd5b5060043610610029575f3560e01c80634feb57141461002d575b5f80fd5b61004760048036038101906100429190610140565b61005d565b60405161005491906101aa565b60405180910390f35b5f80848561006b91906101f0565b90505f848561007a91906101f0565b90505f848561008991906101f0565b90505f83148061009857505f82145b806100a257505f81145b156100b2575f9350505050610102565b81836100be9190610231565b8114806100d5575080826100d29190610231565b83145b806100ea575080836100e79190610231565b82145b156100fb5760019350505050610102565b5f93505050505b9392505050565b5f80fd5b5f819050919050565b61011f8161010d565b8114610129575f80fd5b50565b5f8135905061013a81610116565b92915050565b5f805f6060848603121561015757610156610109565b5b5f6101648682870161012c565b93505060206101758682870161012c565b92505060406101868682870161012c565b9150509250925092565b5f8115159050919050565b6101a481610190565b82525050565b5f6020820190506101bd5f83018461019b565b92915050565b7f4e487b71000000000000000000000000000000000000000000000000000000005f52601160045260245ffd5b5f6101fa8261010d565b91506102058361010d565b92508282026102138161010d565b9150828204841483151761022a576102296101c3565b5b5092915050565b5f61023b8261010d565b91506102468361010d565b925082820190508082111561025e5761025d6101c3565b5b9291505056fea2646970667358221220b628eb6048e8399f307a49bdbd29cd58b03290c4bd6e03af4531913ce4cf61b164736f6c63430008150033",
					"opcodes": "PUSH1 0x80 PUSH1 0x40 MSTORE CALLVALUE DUP1 ISZERO PUSH2 0xF JUMPI PUSH0 DUP1 REVERT JUMPDEST POP PUSH2 0x29A DUP1 PUSH2 0x1D PUSH0 CODECOPY PUSH0 RETURN INVALID PUSH1 0x80 PUSH1 0x40 MSTORE CALLVALUE DUP1 ISZERO PUSH2 0xF JUMPI PUSH0 DUP1 REVERT JUMPDEST POP PUSH1 0x4 CALLDATASIZE LT PUSH2 0x29 JUMPI PUSH0 CALLDATALOAD PUSH1 0xE0 SHR DUP1 PUSH4 0x4FEB5714 EQ PUSH2 0x2D JUMPI JUMPDEST PUSH0 DUP1 REVERT JUMPDEST PUSH2 0x47 PUSH1 0x4 DUP1 CALLDATASIZE SUB DUP2 ADD SWAP1 PUSH2 0x42 SWAP2 SWAP1 PUSH2 0x140 JUMP JUMPDEST PUSH2 0x5D JUMP JUMPDEST PUSH1 0x40 MLOAD PUSH2 0x54 SWAP2 SWAP1 PUSH2 0x1AA JUMP JUMPDEST PUSH1 0x40 MLOAD DUP1 SWAP2 SUB SWAP1 RETURN JUMPDEST PUSH0 DUP1 DUP5 DUP6 PUSH2 0x6B SWAP2 SWAP1 PUSH2 0x1F0 JUMP JUMPDEST SWAP1 POP PUSH0 DUP5 DUP6 PUSH2 0x7A SWAP2 SWAP1 PUSH2 0x1F0 JUMP JUMPDEST SWAP1 POP PUSH0 DUP5 DUP6 PUSH2 0x89 SWAP2 SWAP1 PUSH2 0x1F0 JUMP JUMPDEST SWAP1 POP PUSH0 DUP4 EQ DUP1 PUSH2 0x98 JUMPI POP PUSH0 DUP3 EQ JUMPDEST DUP1 PUSH2 0xA2 JUMPI POP PUSH0 DUP2 EQ JUMPDEST ISZERO PUSH2 0xB2 JUMPI PUSH0 SWAP4 POP POP POP POP PUSH2 0x102 JUMP JUMPDEST DUP2 DUP4 PUSH2 0xBE SWAP2 SWAP1 PUSH2 0x231 JUMP JUMPDEST DUP2 EQ DUP1 PUSH2 0xD5 JUMPI POP DUP1 DUP3 PUSH2 0xD2 SWAP2 SWAP1 PUSH2 0x231 JUMP JUMPDEST DUP4 EQ JUMPDEST DUP1 PUSH2 0xEA JUMPI POP DUP1 DUP4 PUSH2 0xE7 SWAP2 SWAP1 PUSH2 0x231 JUMP JUMPDEST DUP3 EQ JUMPDEST ISZERO PUSH2 0xFB JUMPI PUSH1 0x1 SWAP4 POP POP POP POP PUSH2 0x102 JUMP JUMPDEST PUSH0 SWAP4 POP POP POP POP JUMPDEST SWAP4 SWAP3 POP POP POP JUMP JUMPDEST PUSH0 DUP1 REVERT JUMPDEST PUSH0 DUP2 SWAP1 POP SWAP2 SWAP1 POP JUMP JUMPDEST PUSH2 0x11F DUP2 PUSH2 0x10D JUMP JUMPDEST DUP2 EQ PUSH2 0x129 JUMPI PUSH0 DUP1 REVERT JUMPDEST POP JUMP JUMPDEST PUSH0 DUP2 CALLDATALOAD SWAP1 POP PUSH2 0x13A DUP2 PUSH2 0x116 JUMP JUMPDEST SWAP3 SWAP2 POP POP JUMP JUMPDEST PUSH0 DUP1 PUSH0 PUSH1 0x60 DUP5 DUP7 SUB SLT ISZERO PUSH2 0x157 JUMPI PUSH2 0x156 PUSH2 0x109 JUMP JUMPDEST JUMPDEST PUSH0 PUSH2 0x164 DUP7 DUP3 DUP8 ADD PUSH2 0x12C JUMP JUMPDEST SWAP4 POP POP PUSH1 0x20 PUSH2 0x175 DUP7 DUP3 DUP8 ADD PUSH2 0x12C JUMP JUMPDEST SWAP3 POP POP PUSH1 0x40 PUSH2 0x186 DUP7 DUP3 DUP8 ADD PUSH2 0x12C JUMP JUMPDEST SWAP2 POP POP SWAP3 POP SWAP3 POP SWAP3 JUMP JUMPDEST PUSH0 DUP2 ISZERO ISZERO SWAP1 POP SWAP2 SWAP1 POP JUMP JUMPDEST PUSH2 0x1A4 DUP2 PUSH2 0x190 JUMP JUMPDEST DUP3 MSTORE POP POP JUMP JUMPDEST PUSH0 PUSH1 0x20 DUP3 ADD SWAP1 POP PUSH2 0x1BD PUSH0 DUP4 ADD DUP5 PUSH2 0x19B JUMP JUMPDEST SWAP3 SWAP2 POP POP JUMP JUMPDEST PUSH32 0x4E487B7100000000000000000000000000000000000000000000000000000000 PUSH0 MSTORE PUSH1 0x11 PUSH1 0x4 MSTORE PUSH1 0x24 PUSH0 REVERT JUMPDEST PUSH0 PUSH2 0x1FA DUP3 PUSH2 0x10D JUMP JUMPDEST SWAP2 POP PUSH2 0x205 DUP4 PUSH2 0x10D JUMP JUMPDEST SWAP3 POP DUP3 DUP3 MUL PUSH2 0x213 DUP2 PUSH2 0x10D JUMP JUMPDEST SWAP2 POP DUP3 DUP3 DIV DUP5 EQ DUP4 ISZERO OR PUSH2 0x22A JUMPI PUSH2 0x229 PUSH2 0x1C3 JUMP JUMPDEST JUMPDEST POP SWAP3 SWAP2 POP POP JUMP JUMPDEST PUSH0 PUSH2 0x23B DUP3 PUSH2 0x10D JUMP JUMPDEST SWAP2 POP PUSH2 0x246 DUP4 PUSH2 0x10D JUMP JUMPDEST SWAP3 POP DUP3 DUP3 ADD SWAP1 POP DUP1 DUP3 GT ISZERO PUSH2 0x25E JUMPI PUSH2 0x25D PUSH2 0x1C3 JUMP JUMPDEST JUMPDEST SWAP3 SWAP2 POP POP JUMP INVALID LOG2 PUSH5 0x6970667358 0x22 SLT KECCAK256 0xB6 0x28 0xEB PUSH1 0x48 0xE8 CODECOPY SWAP16 ADDRESS PUSH27 0x49BDBD29CD58B03290C4BD6E03AF4531913CE4CF61B164736F6C63 NUMBER STOP ADDMOD ISZERO STOP CALLER "
				},
				"gasEstimates": {
					"creation": {
						"codeDepositCost": "133200",
						"executionCost": "175",
						"totalCost": "133375"
					},
					"external": {
						"check(uint256,uint256,uint256)": "infinite"
					}
				},
				"methodIdentifiers": {
					"check(uint256,uint256,uint256)": "4feb5714"
				}
			},
			"storageLayout": {
				"storage": [],
				"types": null
			},
			"userdoc": {
				"kind": "user",
				"methods": {},
				"version": 1
			}
		}
	}
}