{
	"DappWorld/easy/SecondLargest.sol": {
		"SecondLargest": {
			"abi": [
				{
					"inputs": [
						{
							"internalType": "int256[]",
							"name": "arr",
							"type": "int256[]"
						}
					],
					"name": "findSecondLargest",
					"outputs": [
						{
							"internalType": "int256",
							"name": "",
							"type": "int256"
						}
					],
					"stateMutability": "pure",
					"type": "function"
				}
			],
			"devdoc": {
				"kind": "dev",
				"methods": {},
				"version": 1
			},
			"evm": {
				"assembly": "    /* \"DappWorld/easy/SecondLargest.sol\":61:716  contract SecondLargest {... */\n  mstore(0x40, 0x80)\n  callvalue\n  dup1\n  iszero\n  tag_1\n  jumpi\n  0x00\n  dup1\n  revert\ntag_1:\n  pop\n  dataSize(sub_0)\n  dup1\n  dataOffset(sub_0)\n  0x00\n  codecopy\n  0x00\n  return\nstop\n\nsub_0: assembly {\n        /* \"DappWorld/easy/SecondLargest.sol\":61:716  contract SecondLargest {... */\n      mstore(0x40, 0x80)\n      callvalue\n      dup1\n      iszero\n      tag_1\n      jumpi\n      0x00\n      dup1\n      revert\n    tag_1:\n      pop\n      jumpi(tag_2, lt(calldatasize, 0x04))\n      shr(0xe0, calldataload(0x00))\n      dup1\n      0x5545f8f4\n      eq\n      tag_3\n      jumpi\n    tag_2:\n      0x00\n      dup1\n      revert\n        /* \"DappWorld/easy/SecondLargest.sol\":163:713  function findSecondLargest(int[] memory arr) public pure returns (int) {... */\n    tag_3:\n      tag_4\n      0x04\n      dup1\n      calldatasize\n      sub\n      dup2\n      add\n      swap1\n      tag_5\n      swap2\n      swap1\n      tag_6\n      jump\t// in\n    tag_5:\n      tag_7\n      jump\t// in\n    tag_4:\n      mload(0x40)\n      tag_8\n      swap2\n      swap1\n      tag_9\n      jump\t// in\n    tag_8:\n      mload(0x40)\n      dup1\n      swap2\n      sub\n      swap1\n      return\n    tag_7:\n        /* \"DappWorld/easy/SecondLargest.sol\":229:232  int */\n      0x00\n        /* \"DappWorld/easy/SecondLargest.sol\":244:250  uint i */\n      dup1\n        /* \"DappWorld/easy/SecondLargest.sol\":252:258  uint j */\n      0x00\n        /* \"DappWorld/easy/SecondLargest.sol\":268:280  bool swapped */\n      dup1\n        /* \"DappWorld/easy/SecondLargest.sol\":299:300  0 */\n      0x00\n        /* \"DappWorld/easy/SecondLargest.sol\":295:300  i = 0 */\n      swap3\n      pop\n        /* \"DappWorld/easy/SecondLargest.sol\":290:673  for (i = 0; i < arr.length - 1; i++) {... */\n    tag_11:\n        /* \"DappWorld/easy/SecondLargest.sol\":319:320  1 */\n      0x01\n        /* \"DappWorld/easy/SecondLargest.sol\":306:309  arr */\n      dup6\n        /* \"DappWorld/easy/SecondLargest.sol\":306:316  arr.length */\n      mload\n        /* \"DappWorld/easy/SecondLargest.sol\":306:320  arr.length - 1 */\n      tag_14\n      swap2\n      swap1\n      tag_15\n      jump\t// in\n    tag_14:\n        /* \"DappWorld/easy/SecondLargest.sol\":302:303  i */\n      dup4\n        /* \"DappWorld/easy/SecondLargest.sol\":302:320  i < arr.length - 1 */\n      lt\n        /* \"DappWorld/easy/SecondLargest.sol\":290:673  for (i = 0; i < arr.length - 1; i++) {... */\n      iszero\n      tag_12\n      jumpi\n        /* \"DappWorld/easy/SecondLargest.sol\":349:354  false */\n      0x00\n        /* \"DappWorld/easy/SecondLargest.sol\":339:354  swapped = false */\n      swap1\n      pop\n        /* \"DappWorld/easy/SecondLargest.sol\":375:376  0 */\n      0x00\n        /* \"DappWorld/easy/SecondLargest.sol\":371:376  j = 0 */\n      swap2\n      pop\n        /* \"DappWorld/easy/SecondLargest.sol\":366:610  for (j = 0; j < arr.length - i - 1; j++) {... */\n    tag_16:\n        /* \"DappWorld/easy/SecondLargest.sol\":399:400  1 */\n      0x01\n        /* \"DappWorld/easy/SecondLargest.sol\":395:396  i */\n      dup4\n        /* \"DappWorld/easy/SecondLargest.sol\":382:385  arr */\n      dup7\n        /* \"DappWorld/easy/SecondLargest.sol\":382:392  arr.length */\n      mload\n        /* \"DappWorld/easy/SecondLargest.sol\":382:396  arr.length - i */\n      tag_19\n      swap2\n      swap1\n      tag_15\n      jump\t// in\n    tag_19:\n        /* \"DappWorld/easy/SecondLargest.sol\":382:400  arr.length - i - 1 */\n      tag_20\n      swap2\n      swap1\n      tag_15\n      jump\t// in\n    tag_20:\n        /* \"DappWorld/easy/SecondLargest.sol\":378:379  j */\n      dup3\n        /* \"DappWorld/easy/SecondLargest.sol\":378:400  j < arr.length - i - 1 */\n      lt\n        /* \"DappWorld/easy/SecondLargest.sol\":366:610  for (j = 0; j < arr.length - i - 1; j++) {... */\n      iszero\n      tag_17\n      jumpi\n        /* \"DappWorld/easy/SecondLargest.sol\":435:438  arr */\n      dup5\n        /* \"DappWorld/easy/SecondLargest.sol\":443:444  1 */\n      0x01\n        /* \"DappWorld/easy/SecondLargest.sol\":439:440  j */\n      dup4\n        /* \"DappWorld/easy/SecondLargest.sol\":439:444  j + 1 */\n      tag_21\n      swap2\n      swap1\n      tag_22\n      jump\t// in\n    tag_21:\n        /* \"DappWorld/easy/SecondLargest.sol\":435:445  arr[j + 1] */\n      dup2\n      mload\n      dup2\n      lt\n      tag_23\n      jumpi\n      tag_24\n      tag_25\n      jump\t// in\n    tag_24:\n    tag_23:\n      0x20\n      mul\n      0x20\n      add\n      add\n      mload\n        /* \"DappWorld/easy/SecondLargest.sol\":426:429  arr */\n      dup6\n        /* \"DappWorld/easy/SecondLargest.sol\":430:431  j */\n      dup4\n        /* \"DappWorld/easy/SecondLargest.sol\":426:432  arr[j] */\n      dup2\n      mload\n      dup2\n      lt\n      tag_26\n      jumpi\n      tag_27\n      tag_25\n      jump\t// in\n    tag_27:\n    tag_26:\n      0x20\n      mul\n      0x20\n      add\n      add\n      mload\n        /* \"DappWorld/easy/SecondLargest.sol\":426:445  arr[j] > arr[j + 1] */\n      sgt\n        /* \"DappWorld/easy/SecondLargest.sol\":422:598  if (arr[j] > arr[j + 1]) {... */\n      iszero\n      tag_28\n      jumpi\n        /* \"DappWorld/easy/SecondLargest.sol\":466:475  int store */\n      0x00\n        /* \"DappWorld/easy/SecondLargest.sol\":476:479  arr */\n      dup6\n        /* \"DappWorld/easy/SecondLargest.sol\":480:481  j */\n      dup4\n        /* \"DappWorld/easy/SecondLargest.sol\":476:482  arr[j] */\n      dup2\n      mload\n      dup2\n      lt\n      tag_29\n      jumpi\n      tag_30\n      tag_25\n      jump\t// in\n    tag_30:\n    tag_29:\n      0x20\n      mul\n      0x20\n      add\n      add\n      mload\n        /* \"DappWorld/easy/SecondLargest.sol\":466:482  int store=arr[j] */\n      swap1\n      pop\n        /* \"DappWorld/easy/SecondLargest.sol\":508:511  arr */\n      dup6\n        /* \"DappWorld/easy/SecondLargest.sol\":514:515  1 */\n      0x01\n        /* \"DappWorld/easy/SecondLargest.sol\":512:513  j */\n      dup5\n        /* \"DappWorld/easy/SecondLargest.sol\":512:515  j+1 */\n      tag_31\n      swap2\n      swap1\n      tag_22\n      jump\t// in\n    tag_31:\n        /* \"DappWorld/easy/SecondLargest.sol\":508:516  arr[j+1] */\n      dup2\n      mload\n      dup2\n      lt\n      tag_32\n      jumpi\n      tag_33\n      tag_25\n      jump\t// in\n    tag_33:\n    tag_32:\n      0x20\n      mul\n      0x20\n      add\n      add\n      mload\n        /* \"DappWorld/easy/SecondLargest.sol\":501:504  arr */\n      dup7\n        /* \"DappWorld/easy/SecondLargest.sol\":505:506  j */\n      dup5\n        /* \"DappWorld/easy/SecondLargest.sol\":501:507  arr[j] */\n      dup2\n      mload\n      dup2\n      lt\n      tag_34\n      jumpi\n      tag_35\n      tag_25\n      jump\t// in\n    tag_35:\n    tag_34:\n      0x20\n      mul\n      0x20\n      add\n      add\n        /* \"DappWorld/easy/SecondLargest.sol\":501:516  arr[j]=arr[j+1] */\n      dup2\n      dup2\n      mstore\n      pop\n      pop\n        /* \"DappWorld/easy/SecondLargest.sol\":544:549  store */\n      dup1\n        /* \"DappWorld/easy/SecondLargest.sol\":535:538  arr */\n      dup7\n        /* \"DappWorld/easy/SecondLargest.sol\":541:542  1 */\n      0x01\n        /* \"DappWorld/easy/SecondLargest.sol\":539:540  j */\n      dup6\n        /* \"DappWorld/easy/SecondLargest.sol\":539:542  j+1 */\n      tag_36\n      swap2\n      swap1\n      tag_22\n      jump\t// in\n    tag_36:\n        /* \"DappWorld/easy/SecondLargest.sol\":535:543  arr[j+1] */\n      dup2\n      mload\n      dup2\n      lt\n      tag_37\n      jumpi\n      tag_38\n      tag_25\n      jump\t// in\n    tag_38:\n    tag_37:\n      0x20\n      mul\n      0x20\n      add\n      add\n        /* \"DappWorld/easy/SecondLargest.sol\":535:549  arr[j+1]=store */\n      dup2\n      dup2\n      mstore\n      pop\n      pop\n        /* \"DappWorld/easy/SecondLargest.sol\":578:582  true */\n      0x01\n        /* \"DappWorld/easy/SecondLargest.sol\":568:582  swapped = true */\n      swap2\n      pop\n        /* \"DappWorld/easy/SecondLargest.sol\":447:598  {... */\n      pop\n        /* \"DappWorld/easy/SecondLargest.sol\":422:598  if (arr[j] > arr[j + 1]) {... */\n    tag_28:\n        /* \"DappWorld/easy/SecondLargest.sol\":402:405  j++ */\n      dup2\n      dup1\n      tag_39\n      swap1\n      tag_40\n      jump\t// in\n    tag_39:\n      swap3\n      pop\n      pop\n        /* \"DappWorld/easy/SecondLargest.sol\":366:610  for (j = 0; j < arr.length - i - 1; j++) {... */\n      jump(tag_16)\n    tag_17:\n        /* \"DappWorld/easy/SecondLargest.sol\":636:641  false */\n      0x00\n        /* \"DappWorld/easy/SecondLargest.sol\":625:641  swapped == false */\n      iszero\n      iszero\n        /* \"DappWorld/easy/SecondLargest.sol\":625:632  swapped */\n      dup2\n        /* \"DappWorld/easy/SecondLargest.sol\":625:641  swapped == false */\n      iszero\n      iszero\n      sub\n        /* \"DappWorld/easy/SecondLargest.sol\":621:661  if (swapped == false)... */\n      iszero\n        /* \"DappWorld/easy/SecondLargest.sol\":656:661  break */\n      tag_12\n        /* \"DappWorld/easy/SecondLargest.sol\":621:661  if (swapped == false)... */\n      jumpi\n        /* \"DappWorld/easy/SecondLargest.sol\":322:325  i++ */\n      dup3\n      dup1\n      tag_42\n      swap1\n      tag_40\n      jump\t// in\n    tag_42:\n      swap4\n      pop\n      pop\n        /* \"DappWorld/easy/SecondLargest.sol\":290:673  for (i = 0; i < arr.length - 1; i++) {... */\n      jump(tag_11)\n    tag_12:\n        /* \"DappWorld/easy/SecondLargest.sol\":690:693  arr */\n      dup5\n        /* \"DappWorld/easy/SecondLargest.sol\":705:706  2 */\n      0x02\n        /* \"DappWorld/easy/SecondLargest.sol\":694:697  arr */\n      dup7\n        /* \"DappWorld/easy/SecondLargest.sol\":694:704  arr.length */\n      mload\n        /* \"DappWorld/easy/SecondLargest.sol\":694:706  arr.length-2 */\n      tag_43\n      swap2\n      swap1\n      tag_15\n      jump\t// in\n    tag_43:\n        /* \"DappWorld/easy/SecondLargest.sol\":690:707  arr[arr.length-2] */\n      dup2\n      mload\n      dup2\n      lt\n      tag_44\n      jumpi\n      tag_45\n      tag_25\n      jump\t// in\n    tag_45:\n    tag_44:\n      0x20\n      mul\n      0x20\n      add\n      add\n      mload\n        /* \"DappWorld/easy/SecondLargest.sol\":683:707  return arr[arr.length-2] */\n      swap4\n      pop\n      pop\n      pop\n      pop\n        /* \"DappWorld/easy/SecondLargest.sol\":163:713  function findSecondLargest(int[] memory arr) public pure returns (int) {... */\n      swap2\n      swap1\n      pop\n      jump\t// out\n        /* \"#utility.yul\":7:82   */\n    tag_46:\n        /* \"#utility.yul\":40:46   */\n      0x00\n        /* \"#utility.yul\":73:75   */\n      0x40\n        /* \"#utility.yul\":67:76   */\n      mload\n        /* \"#utility.yul\":57:76   */\n      swap1\n      pop\n        /* \"#utility.yul\":7:82   */\n      swap1\n      jump\t// out\n        /* \"#utility.yul\":88:205   */\n    tag_47:\n        /* \"#utility.yul\":197:198   */\n      0x00\n        /* \"#utility.yul\":194:195   */\n      dup1\n        /* \"#utility.yul\":187:199   */\n      revert\n        /* \"#utility.yul\":211:328   */\n    tag_48:\n        /* \"#utility.yul\":320:321   */\n      0x00\n        /* \"#utility.yul\":317:318   */\n      dup1\n        /* \"#utility.yul\":310:322   */\n      revert\n        /* \"#utility.yul\":334:451   */\n    tag_49:\n        /* \"#utility.yul\":443:444   */\n      0x00\n        /* \"#utility.yul\":440:441   */\n      dup1\n        /* \"#utility.yul\":433:445   */\n      revert\n        /* \"#utility.yul\":457:559   */\n    tag_50:\n        /* \"#utility.yul\":498:504   */\n      0x00\n        /* \"#utility.yul\":549:551   */\n      0x1f\n        /* \"#utility.yul\":545:552   */\n      not\n        /* \"#utility.yul\":540:542   */\n      0x1f\n        /* \"#utility.yul\":533:538   */\n      dup4\n        /* \"#utility.yul\":529:543   */\n      add\n        /* \"#utility.yul\":525:553   */\n      and\n        /* \"#utility.yul\":515:553   */\n      swap1\n      pop\n        /* \"#utility.yul\":457:559   */\n      swap2\n      swap1\n      pop\n      jump\t// out\n        /* \"#utility.yul\":565:745   */\n    tag_51:\n        /* \"#utility.yul\":613:690   */\n      0x4e487b7100000000000000000000000000000000000000000000000000000000\n        /* \"#utility.yul\":610:611   */\n      0x00\n        /* \"#utility.yul\":603:691   */\n      mstore\n        /* \"#utility.yul\":710:714   */\n      0x41\n        /* \"#utility.yul\":707:708   */\n      0x04\n        /* \"#utility.yul\":700:715   */\n      mstore\n        /* \"#utility.yul\":734:738   */\n      0x24\n        /* \"#utility.yul\":731:732   */\n      0x00\n        /* \"#utility.yul\":724:739   */\n      revert\n        /* \"#utility.yul\":751:1032   */\n    tag_52:\n        /* \"#utility.yul\":834:861   */\n      tag_72\n        /* \"#utility.yul\":856:860   */\n      dup3\n        /* \"#utility.yul\":834:861   */\n      tag_50\n      jump\t// in\n    tag_72:\n        /* \"#utility.yul\":826:832   */\n      dup2\n        /* \"#utility.yul\":822:862   */\n      add\n        /* \"#utility.yul\":964:970   */\n      dup2\n        /* \"#utility.yul\":952:962   */\n      dup2\n        /* \"#utility.yul\":949:971   */\n      lt\n        /* \"#utility.yul\":928:946   */\n      0xffffffffffffffff\n        /* \"#utility.yul\":916:926   */\n      dup3\n        /* \"#utility.yul\":913:947   */\n      gt\n        /* \"#utility.yul\":910:972   */\n      or\n        /* \"#utility.yul\":907:995   */\n      iszero\n      tag_73\n      jumpi\n        /* \"#utility.yul\":975:993   */\n      tag_74\n      tag_51\n      jump\t// in\n    tag_74:\n        /* \"#utility.yul\":907:995   */\n    tag_73:\n        /* \"#utility.yul\":1015:1025   */\n      dup1\n        /* \"#utility.yul\":1011:1013   */\n      0x40\n        /* \"#utility.yul\":1004:1026   */\n      mstore\n        /* \"#utility.yul\":794:1032   */\n      pop\n        /* \"#utility.yul\":751:1032   */\n      pop\n      pop\n      jump\t// out\n        /* \"#utility.yul\":1038:1167   */\n    tag_53:\n        /* \"#utility.yul\":1072:1078   */\n      0x00\n        /* \"#utility.yul\":1099:1119   */\n      tag_76\n      tag_46\n      jump\t// in\n    tag_76:\n        /* \"#utility.yul\":1089:1119   */\n      swap1\n      pop\n        /* \"#utility.yul\":1128:1161   */\n      tag_77\n        /* \"#utility.yul\":1156:1160   */\n      dup3\n        /* \"#utility.yul\":1148:1154   */\n      dup3\n        /* \"#utility.yul\":1128:1161   */\n      tag_52\n      jump\t// in\n    tag_77:\n        /* \"#utility.yul\":1038:1167   */\n      swap2\n      swap1\n      pop\n      jump\t// out\n        /* \"#utility.yul\":1173:1483   */\n    tag_54:\n        /* \"#utility.yul\":1249:1253   */\n      0x00\n        /* \"#utility.yul\":1339:1357   */\n      0xffffffffffffffff\n        /* \"#utility.yul\":1331:1337   */\n      dup3\n        /* \"#utility.yul\":1328:1358   */\n      gt\n        /* \"#utility.yul\":1325:1381   */\n      iszero\n      tag_79\n      jumpi\n        /* \"#utility.yul\":1361:1379   */\n      tag_80\n      tag_51\n      jump\t// in\n    tag_80:\n        /* \"#utility.yul\":1325:1381   */\n    tag_79:\n        /* \"#utility.yul\":1411:1415   */\n      0x20\n        /* \"#utility.yul\":1403:1409   */\n      dup3\n        /* \"#utility.yul\":1399:1416   */\n      mul\n        /* \"#utility.yul\":1391:1416   */\n      swap1\n      pop\n        /* \"#utility.yul\":1471:1475   */\n      0x20\n        /* \"#utility.yul\":1465:1469   */\n      dup2\n        /* \"#utility.yul\":1461:1476   */\n      add\n        /* \"#utility.yul\":1453:1476   */\n      swap1\n      pop\n        /* \"#utility.yul\":1173:1483   */\n      swap2\n      swap1\n      pop\n      jump\t// out\n        /* \"#utility.yul\":1489:1606   */\n    tag_55:\n        /* \"#utility.yul\":1598:1599   */\n      0x00\n        /* \"#utility.yul\":1595:1596   */\n      dup1\n        /* \"#utility.yul\":1588:1600   */\n      revert\n        /* \"#utility.yul\":1612:1688   */\n    tag_56:\n        /* \"#utility.yul\":1648:1655   */\n      0x00\n        /* \"#utility.yul\":1677:1682   */\n      dup2\n        /* \"#utility.yul\":1666:1682   */\n      swap1\n      pop\n        /* \"#utility.yul\":1612:1688   */\n      swap2\n      swap1\n      pop\n      jump\t// out\n        /* \"#utility.yul\":1694:1814   */\n    tag_57:\n        /* \"#utility.yul\":1766:1789   */\n      tag_84\n        /* \"#utility.yul\":1783:1788   */\n      dup2\n        /* \"#utility.yul\":1766:1789   */\n      tag_56\n      jump\t// in\n    tag_84:\n        /* \"#utility.yul\":1759:1764   */\n      dup2\n        /* \"#utility.yul\":1756:1790   */\n      eq\n        /* \"#utility.yul\":1746:1808   */\n      tag_85\n      jumpi\n        /* \"#utility.yul\":1804:1805   */\n      0x00\n        /* \"#utility.yul\":1801:1802   */\n      dup1\n        /* \"#utility.yul\":1794:1806   */\n      revert\n        /* \"#utility.yul\":1746:1808   */\n    tag_85:\n        /* \"#utility.yul\":1694:1814   */\n      pop\n      jump\t// out\n        /* \"#utility.yul\":1820:1957   */\n    tag_58:\n        /* \"#utility.yul\":1865:1870   */\n      0x00\n        /* \"#utility.yul\":1903:1909   */\n      dup2\n        /* \"#utility.yul\":1890:1910   */\n      calldataload\n        /* \"#utility.yul\":1881:1910   */\n      swap1\n      pop\n        /* \"#utility.yul\":1919:1951   */\n      tag_87\n        /* \"#utility.yul\":1945:1950   */\n      dup2\n        /* \"#utility.yul\":1919:1951   */\n      tag_57\n      jump\t// in\n    tag_87:\n        /* \"#utility.yul\":1820:1957   */\n      swap3\n      swap2\n      pop\n      pop\n      jump\t// out\n        /* \"#utility.yul\":1979:2686   */\n    tag_59:\n        /* \"#utility.yul\":2074:2079   */\n      0x00\n        /* \"#utility.yul\":2099:2179   */\n      tag_89\n        /* \"#utility.yul\":2115:2178   */\n      tag_90\n        /* \"#utility.yul\":2171:2177   */\n      dup5\n        /* \"#utility.yul\":2115:2178   */\n      tag_54\n      jump\t// in\n    tag_90:\n        /* \"#utility.yul\":2099:2179   */\n      tag_53\n      jump\t// in\n    tag_89:\n        /* \"#utility.yul\":2090:2179   */\n      swap1\n      pop\n        /* \"#utility.yul\":2199:2204   */\n      dup1\n        /* \"#utility.yul\":2228:2234   */\n      dup4\n        /* \"#utility.yul\":2221:2226   */\n      dup3\n        /* \"#utility.yul\":2214:2235   */\n      mstore\n        /* \"#utility.yul\":2262:2266   */\n      0x20\n        /* \"#utility.yul\":2255:2260   */\n      dup3\n        /* \"#utility.yul\":2251:2267   */\n      add\n        /* \"#utility.yul\":2244:2267   */\n      swap1\n      pop\n        /* \"#utility.yul\":2315:2319   */\n      0x20\n        /* \"#utility.yul\":2307:2313   */\n      dup5\n        /* \"#utility.yul\":2303:2320   */\n      mul\n        /* \"#utility.yul\":2295:2301   */\n      dup4\n        /* \"#utility.yul\":2291:2321   */\n      add\n        /* \"#utility.yul\":2344:2347   */\n      dup6\n        /* \"#utility.yul\":2336:2342   */\n      dup2\n        /* \"#utility.yul\":2333:2348   */\n      gt\n        /* \"#utility.yul\":2330:2452   */\n      iszero\n      tag_91\n      jumpi\n        /* \"#utility.yul\":2363:2442   */\n      tag_92\n      tag_55\n      jump\t// in\n    tag_92:\n        /* \"#utility.yul\":2330:2452   */\n    tag_91:\n        /* \"#utility.yul\":2478:2484   */\n      dup4\n        /* \"#utility.yul\":2461:2680   */\n    tag_93:\n        /* \"#utility.yul\":2495:2501   */\n      dup2\n        /* \"#utility.yul\":2490:2493   */\n      dup2\n        /* \"#utility.yul\":2487:2502   */\n      lt\n        /* \"#utility.yul\":2461:2680   */\n      iszero\n      tag_95\n      jumpi\n        /* \"#utility.yul\":2570:2573   */\n      dup1\n        /* \"#utility.yul\":2599:2635   */\n      tag_96\n        /* \"#utility.yul\":2631:2634   */\n      dup9\n        /* \"#utility.yul\":2619:2629   */\n      dup3\n        /* \"#utility.yul\":2599:2635   */\n      tag_58\n      jump\t// in\n    tag_96:\n        /* \"#utility.yul\":2594:2597   */\n      dup5\n        /* \"#utility.yul\":2587:2636   */\n      mstore\n        /* \"#utility.yul\":2665:2669   */\n      0x20\n        /* \"#utility.yul\":2660:2663   */\n      dup5\n        /* \"#utility.yul\":2656:2670   */\n      add\n        /* \"#utility.yul\":2649:2670   */\n      swap4\n      pop\n        /* \"#utility.yul\":2537:2680   */\n      pop\n        /* \"#utility.yul\":2521:2525   */\n      0x20\n        /* \"#utility.yul\":2516:2519   */\n      dup2\n        /* \"#utility.yul\":2512:2526   */\n      add\n        /* \"#utility.yul\":2505:2526   */\n      swap1\n      pop\n        /* \"#utility.yul\":2461:2680   */\n      jump(tag_93)\n    tag_95:\n        /* \"#utility.yul\":2465:2486   */\n      pop\n        /* \"#utility.yul\":2080:2686   */\n      pop\n      pop\n        /* \"#utility.yul\":1979:2686   */\n      swap4\n      swap3\n      pop\n      pop\n      pop\n      jump\t// out\n        /* \"#utility.yul\":2708:3076   */\n    tag_60:\n        /* \"#utility.yul\":2778:2783   */\n      0x00\n        /* \"#utility.yul\":2827:2830   */\n      dup3\n        /* \"#utility.yul\":2820:2824   */\n      0x1f\n        /* \"#utility.yul\":2812:2818   */\n      dup4\n        /* \"#utility.yul\":2808:2825   */\n      add\n        /* \"#utility.yul\":2804:2831   */\n      slt\n        /* \"#utility.yul\":2794:2916   */\n      tag_98\n      jumpi\n        /* \"#utility.yul\":2835:2914   */\n      tag_99\n      tag_49\n      jump\t// in\n    tag_99:\n        /* \"#utility.yul\":2794:2916   */\n    tag_98:\n        /* \"#utility.yul\":2952:2958   */\n      dup2\n        /* \"#utility.yul\":2939:2959   */\n      calldataload\n        /* \"#utility.yul\":2977:3070   */\n      tag_100\n        /* \"#utility.yul\":3066:3069   */\n      dup5\n        /* \"#utility.yul\":3058:3064   */\n      dup3\n        /* \"#utility.yul\":3051:3055   */\n      0x20\n        /* \"#utility.yul\":3043:3049   */\n      dup7\n        /* \"#utility.yul\":3039:3056   */\n      add\n        /* \"#utility.yul\":2977:3070   */\n      tag_59\n      jump\t// in\n    tag_100:\n        /* \"#utility.yul\":2968:3070   */\n      swap2\n      pop\n        /* \"#utility.yul\":2784:3076   */\n      pop\n        /* \"#utility.yul\":2708:3076   */\n      swap3\n      swap2\n      pop\n      pop\n      jump\t// out\n        /* \"#utility.yul\":3082:3619   */\n    tag_6:\n        /* \"#utility.yul\":3165:3171   */\n      0x00\n        /* \"#utility.yul\":3214:3216   */\n      0x20\n        /* \"#utility.yul\":3202:3211   */\n      dup3\n        /* \"#utility.yul\":3193:3200   */\n      dup5\n        /* \"#utility.yul\":3189:3212   */\n      sub\n        /* \"#utility.yul\":3185:3217   */\n      slt\n        /* \"#utility.yul\":3182:3301   */\n      iszero\n      tag_102\n      jumpi\n        /* \"#utility.yul\":3220:3299   */\n      tag_103\n      tag_47\n      jump\t// in\n    tag_103:\n        /* \"#utility.yul\":3182:3301   */\n    tag_102:\n        /* \"#utility.yul\":3368:3369   */\n      0x00\n        /* \"#utility.yul\":3357:3366   */\n      dup3\n        /* \"#utility.yul\":3353:3370   */\n      add\n        /* \"#utility.yul\":3340:3371   */\n      calldataload\n        /* \"#utility.yul\":3398:3416   */\n      0xffffffffffffffff\n        /* \"#utility.yul\":3390:3396   */\n      dup2\n        /* \"#utility.yul\":3387:3417   */\n      gt\n        /* \"#utility.yul\":3384:3501   */\n      iszero\n      tag_104\n      jumpi\n        /* \"#utility.yul\":3420:3499   */\n      tag_105\n      tag_48\n      jump\t// in\n    tag_105:\n        /* \"#utility.yul\":3384:3501   */\n    tag_104:\n        /* \"#utility.yul\":3525:3602   */\n      tag_106\n        /* \"#utility.yul\":3594:3601   */\n      dup5\n        /* \"#utility.yul\":3585:3591   */\n      dup3\n        /* \"#utility.yul\":3574:3583   */\n      dup6\n        /* \"#utility.yul\":3570:3592   */\n      add\n        /* \"#utility.yul\":3525:3602   */\n      tag_60\n      jump\t// in\n    tag_106:\n        /* \"#utility.yul\":3515:3602   */\n      swap2\n      pop\n        /* \"#utility.yul\":3311:3612   */\n      pop\n        /* \"#utility.yul\":3082:3619   */\n      swap3\n      swap2\n      pop\n      pop\n      jump\t// out\n        /* \"#utility.yul\":3625:3740   */\n    tag_61:\n        /* \"#utility.yul\":3710:3733   */\n      tag_108\n        /* \"#utility.yul\":3727:3732   */\n      dup2\n        /* \"#utility.yul\":3710:3733   */\n      tag_56\n      jump\t// in\n    tag_108:\n        /* \"#utility.yul\":3705:3708   */\n      dup3\n        /* \"#utility.yul\":3698:3734   */\n      mstore\n        /* \"#utility.yul\":3625:3740   */\n      pop\n      pop\n      jump\t// out\n        /* \"#utility.yul\":3746:3964   */\n    tag_9:\n        /* \"#utility.yul\":3837:3841   */\n      0x00\n        /* \"#utility.yul\":3875:3877   */\n      0x20\n        /* \"#utility.yul\":3864:3873   */\n      dup3\n        /* \"#utility.yul\":3860:3878   */\n      add\n        /* \"#utility.yul\":3852:3878   */\n      swap1\n      pop\n        /* \"#utility.yul\":3888:3957   */\n      tag_110\n        /* \"#utility.yul\":3954:3955   */\n      0x00\n        /* \"#utility.yul\":3943:3952   */\n      dup4\n        /* \"#utility.yul\":3939:3956   */\n      add\n        /* \"#utility.yul\":3930:3936   */\n      dup5\n        /* \"#utility.yul\":3888:3957   */\n      tag_61\n      jump\t// in\n    tag_110:\n        /* \"#utility.yul\":3746:3964   */\n      swap3\n      swap2\n      pop\n      pop\n      jump\t// out\n        /* \"#utility.yul\":3970:4047   */\n    tag_62:\n        /* \"#utility.yul\":4007:4014   */\n      0x00\n        /* \"#utility.yul\":4036:4041   */\n      dup2\n        /* \"#utility.yul\":4025:4041   */\n      swap1\n      pop\n        /* \"#utility.yul\":3970:4047   */\n      swap2\n      swap1\n      pop\n      jump\t// out\n        /* \"#utility.yul\":4053:4233   */\n    tag_63:\n        /* \"#utility.yul\":4101:4178   */\n      0x4e487b7100000000000000000000000000000000000000000000000000000000\n        /* \"#utility.yul\":4098:4099   */\n      0x00\n        /* \"#utility.yul\":4091:4179   */\n      mstore\n        /* \"#utility.yul\":4198:4202   */\n      0x11\n        /* \"#utility.yul\":4195:4196   */\n      0x04\n        /* \"#utility.yul\":4188:4203   */\n      mstore\n        /* \"#utility.yul\":4222:4226   */\n      0x24\n        /* \"#utility.yul\":4219:4220   */\n      0x00\n        /* \"#utility.yul\":4212:4227   */\n      revert\n        /* \"#utility.yul\":4239:4433   */\n    tag_15:\n        /* \"#utility.yul\":4279:4283   */\n      0x00\n        /* \"#utility.yul\":4299:4319   */\n      tag_114\n        /* \"#utility.yul\":4317:4318   */\n      dup3\n        /* \"#utility.yul\":4299:4319   */\n      tag_62\n      jump\t// in\n    tag_114:\n        /* \"#utility.yul\":4294:4319   */\n      swap2\n      pop\n        /* \"#utility.yul\":4333:4353   */\n      tag_115\n        /* \"#utility.yul\":4351:4352   */\n      dup4\n        /* \"#utility.yul\":4333:4353   */\n      tag_62\n      jump\t// in\n    tag_115:\n        /* \"#utility.yul\":4328:4353   */\n      swap3\n      pop\n        /* \"#utility.yul\":4377:4378   */\n      dup3\n        /* \"#utility.yul\":4374:4375   */\n      dup3\n        /* \"#utility.yul\":4370:4379   */\n      sub\n        /* \"#utility.yul\":4362:4379   */\n      swap1\n      pop\n        /* \"#utility.yul\":4401:4402   */\n      dup2\n        /* \"#utility.yul\":4395:4399   */\n      dup2\n        /* \"#utility.yul\":4392:4403   */\n      gt\n        /* \"#utility.yul\":4389:4426   */\n      iszero\n      tag_116\n      jumpi\n        /* \"#utility.yul\":4406:4424   */\n      tag_117\n      tag_63\n      jump\t// in\n    tag_117:\n        /* \"#utility.yul\":4389:4426   */\n    tag_116:\n        /* \"#utility.yul\":4239:4433   */\n      swap3\n      swap2\n      pop\n      pop\n      jump\t// out\n        /* \"#utility.yul\":4439:4630   */\n    tag_22:\n        /* \"#utility.yul\":4479:4482   */\n      0x00\n        /* \"#utility.yul\":4498:4518   */\n      tag_119\n        /* \"#utility.yul\":4516:4517   */\n      dup3\n        /* \"#utility.yul\":4498:4518   */\n      tag_62\n      jump\t// in\n    tag_119:\n        /* \"#utility.yul\":4493:4518   */\n      swap2\n      pop\n        /* \"#utility.yul\":4532:4552   */\n      tag_120\n        /* \"#utility.yul\":4550:4551   */\n      dup4\n        /* \"#utility.yul\":4532:4552   */\n      tag_62\n      jump\t// in\n    tag_120:\n        /* \"#utility.yul\":4527:4552   */\n      swap3\n      pop\n        /* \"#utility.yul\":4575:4576   */\n      dup3\n        /* \"#utility.yul\":4572:4573   */\n      dup3\n        /* \"#utility.yul\":4568:4577   */\n      add\n        /* \"#utility.yul\":4561:4577   */\n      swap1\n      pop\n        /* \"#utility.yul\":4596:4599   */\n      dup1\n        /* \"#utility.yul\":4593:4594   */\n      dup3\n        /* \"#utility.yul\":4590:4600   */\n      gt\n        /* \"#utility.yul\":4587:4623   */\n      iszero\n      tag_121\n      jumpi\n        /* \"#utility.yul\":4603:4621   */\n      tag_122\n      tag_63\n      jump\t// in\n    tag_122:\n        /* \"#utility.yul\":4587:4623   */\n    tag_121:\n        /* \"#utility.yul\":4439:4630   */\n      swap3\n      swap2\n      pop\n      pop\n      jump\t// out\n        /* \"#utility.yul\":4636:4816   */\n    tag_25:\n        /* \"#utility.yul\":4684:4761   */\n      0x4e487b7100000000000000000000000000000000000000000000000000000000\n        /* \"#utility.yul\":4681:4682   */\n      0x00\n        /* \"#utility.yul\":4674:4762   */\n      mstore\n        /* \"#utility.yul\":4781:4785   */\n      0x32\n        /* \"#utility.yul\":4778:4779   */\n      0x04\n        /* \"#utility.yul\":4771:4786   */\n      mstore\n        /* \"#utility.yul\":4805:4809   */\n      0x24\n        /* \"#utility.yul\":4802:4803   */\n      0x00\n        /* \"#utility.yul\":4795:4810   */\n      revert\n        /* \"#utility.yul\":4822:5055   */\n    tag_40:\n        /* \"#utility.yul\":4861:4864   */\n      0x00\n        /* \"#utility.yul\":4884:4908   */\n      tag_125\n        /* \"#utility.yul\":4902:4907   */\n      dup3\n        /* \"#utility.yul\":4884:4908   */\n      tag_62\n      jump\t// in\n    tag_125:\n        /* \"#utility.yul\":4875:4908   */\n      swap2\n      pop\n        /* \"#utility.yul\":4930:4996   */\n      0xffffffffffffffffffffffffffffffffffffffffffffffffffffffffffffffff\n        /* \"#utility.yul\":4923:4928   */\n      dup3\n        /* \"#utility.yul\":4920:4997   */\n      sub\n        /* \"#utility.yul\":4917:5020   */\n      tag_126\n      jumpi\n        /* \"#utility.yul\":5000:5018   */\n      tag_127\n      tag_63\n      jump\t// in\n    tag_127:\n        /* \"#utility.yul\":4917:5020   */\n    tag_126:\n        /* \"#utility.yul\":5047:5048   */\n      0x01\n        /* \"#utility.yul\":5040:5045   */\n      dup3\n        /* \"#utility.yul\":5036:5049   */\n      add\n        /* \"#utility.yul\":5029:5049   */\n      swap1\n      pop\n        /* \"#utility.yul\":4822:5055   */\n      swap2\n      swap1\n      pop\n      jump\t// out\n\n    auxdata: 0xa2646970667358221220f0d6d3043645e2e9ea1205d15cce58f8b08f0106227946769723d06bec20284064736f6c63430008150033\n}\n",
				"bytecode": {
					"linkReferences": {},
					"object": "608060405234801561000f575f80fd5b5061052c8061001d5f395ff3fe608060405234801561000f575f80fd5b5060043610610029575f3560e01c80635545f8f41461002d575b5f80fd5b61004760048036038101906100429190610377565b61005d565b60405161005491906103cd565b60405180910390f35b5f805f805f92505b60018551610073919061041c565b8310156101b1575f90505f91505b6001838651610090919061041c565b61009a919061041c565b82101561019257846001836100af919061044f565b815181106100c0576100bf610482565b5b60200260200101518583815181106100db576100da610482565b5b6020026020010151131561017f575f8583815181106100fd576100fc610482565b5b6020026020010151905085600184610115919061044f565b8151811061012657610125610482565b5b602002602001015186848151811061014157610140610482565b5b602002602001018181525050808660018561015c919061044f565b8151811061016d5761016c610482565b5b60200260200101818152505060019150505b818061018a906104af565b925050610081565b5f151581151503156101b15782806101a9906104af565b935050610065565b84600286516101c0919061041c565b815181106101d1576101d0610482565b5b60200260200101519350505050919050565b5f604051905090565b5f80fd5b5f80fd5b5f80fd5b5f601f19601f8301169050919050565b7f4e487b71000000000000000000000000000000000000000000000000000000005f52604160045260245ffd5b61023e826101f8565b810181811067ffffffffffffffff8211171561025d5761025c610208565b5b80604052505050565b5f61026f6101e3565b905061027b8282610235565b919050565b5f67ffffffffffffffff82111561029a57610299610208565b5b602082029050602081019050919050565b5f80fd5b5f819050919050565b6102c1816102af565b81146102cb575f80fd5b50565b5f813590506102dc816102b8565b92915050565b5f6102f46102ef84610280565b610266565b90508083825260208201905060208402830185811115610317576103166102ab565b5b835b81811015610340578061032c88826102ce565b845260208401935050602081019050610319565b5050509392505050565b5f82601f83011261035e5761035d6101f4565b5b813561036e8482602086016102e2565b91505092915050565b5f6020828403121561038c5761038b6101ec565b5b5f82013567ffffffffffffffff8111156103a9576103a86101f0565b5b6103b58482850161034a565b91505092915050565b6103c7816102af565b82525050565b5f6020820190506103e05f8301846103be565b92915050565b5f819050919050565b7f4e487b71000000000000000000000000000000000000000000000000000000005f52601160045260245ffd5b5f610426826103e6565b9150610431836103e6565b9250828203905081811115610449576104486103ef565b5b92915050565b5f610459826103e6565b9150610464836103e6565b925082820190508082111561047c5761047b6103ef565b5b92915050565b7f4e487b71000000000000000000000000000000000000000000000000000000005f52603260045260245ffd5b5f6104b9826103e6565b91507fffffffffffffffffffffffffffffffffffffffffffffffffffffffffffffffff82036104eb576104ea6103ef565b5b60018201905091905056fea2646970667358221220f0d6d3043645e2e9ea1205d15cce58f8b08f0106227946769723d06bec20284064736f6c63430008150033",
					"opcodes": "PUSH1 0x80 PUSH1 0x40 MSTORE CALLVALUE DUP1 ISZERO PUSH2 0xF JUMPI PUSH0 DUP1 REVERT JUMPDEST POP PUSH2 0x52C DUP1 PUSH2 0x1D PUSH0 CODECOPY PUSH0 RETURN INVALID PUSH1 0x80 PUSH1 0x40 MSTORE CALLVALUE DUP1 ISZERO PUSH2 0xF JUMPI PUSH0 DUP1 REVERT JUMPDEST POP PUSH1 0x4 CALLDATASIZE LT PUSH2 0x29 JUMPI PUSH0 CALLDATALOAD PUSH1 0xE0 SHR DUP1 PUSH4 0x5545F8F4 EQ PUSH2 0x2D JUMPI JUMPDEST PUSH0 DUP1 REVERT JUMPDEST PUSH2 0x47 PUSH1 0x4 DUP1 CALLDATASIZE SUB DUP2 ADD SWAP1 PUSH2 0x42 SWAP2 SWAP1 PUSH2 0x377 JUMP JUMPDEST PUSH2 0x5D JUMP JUMPDEST PUSH1 0x40 MLOAD PUSH2 0x54 SWAP2 SWAP1 PUSH2 0x3CD JUMP JUMPDEST PUSH1 0x40 MLOAD DUP1 SWAP2 SUB SWAP1 RETURN JUMPDEST PUSH0 DUP1 PUSH0 DUP1 PUSH0 SWAP3 POP JUMPDEST PUSH1 0x1 DUP6 MLOAD PUSH2 0x73 SWAP2 SWAP1 PUSH2 0x41C JUMP JUMPDEST DUP4 LT ISZERO PUSH2 0x1B1 JUMPI PUSH0 SWAP1 POP PUSH0 SWAP2 POP JUMPDEST PUSH1 0x1 DUP4 DUP7 MLOAD PUSH2 0x90 SWAP2 SWAP1 PUSH2 0x41C JUMP JUMPDEST PUSH2 0x9A SWAP2 SWAP1 PUSH2 0x41C JUMP JUMPDEST DUP3 LT ISZERO PUSH2 0x192 JUMPI DUP5 PUSH1 0x1 DUP4 PUSH2 0xAF SWAP2 SWAP1 PUSH2 0x44F JUMP JUMPDEST DUP2 MLOAD DUP2 LT PUSH2 0xC0 JUMPI PUSH2 0xBF PUSH2 0x482 JUMP JUMPDEST JUMPDEST PUSH1 0x20 MUL PUSH1 0x20 ADD ADD MLOAD DUP6 DUP4 DUP2 MLOAD DUP2 LT PUSH2 0xDB JUMPI PUSH2 0xDA PUSH2 0x482 JUMP JUMPDEST JUMPDEST PUSH1 0x20 MUL PUSH1 0x20 ADD ADD MLOAD SGT ISZERO PUSH2 0x17F JUMPI PUSH0 DUP6 DUP4 DUP2 MLOAD DUP2 LT PUSH2 0xFD JUMPI PUSH2 0xFC PUSH2 0x482 JUMP JUMPDEST JUMPDEST PUSH1 0x20 MUL PUSH1 0x20 ADD ADD MLOAD SWAP1 POP DUP6 PUSH1 0x1 DUP5 PUSH2 0x115 SWAP2 SWAP1 PUSH2 0x44F JUMP JUMPDEST DUP2 MLOAD DUP2 LT PUSH2 0x126 JUMPI PUSH2 0x125 PUSH2 0x482 JUMP JUMPDEST JUMPDEST PUSH1 0x20 MUL PUSH1 0x20 ADD ADD MLOAD DUP7 DUP5 DUP2 MLOAD DUP2 LT PUSH2 0x141 JUMPI PUSH2 0x140 PUSH2 0x482 JUMP JUMPDEST JUMPDEST PUSH1 0x20 MUL PUSH1 0x20 ADD ADD DUP2 DUP2 MSTORE POP POP DUP1 DUP7 PUSH1 0x1 DUP6 PUSH2 0x15C SWAP2 SWAP1 PUSH2 0x44F JUMP JUMPDEST DUP2 MLOAD DUP2 LT PUSH2 0x16D JUMPI PUSH2 0x16C PUSH2 0x482 JUMP JUMPDEST JUMPDEST PUSH1 0x20 MUL PUSH1 0x20 ADD ADD DUP2 DUP2 MSTORE POP POP PUSH1 0x1 SWAP2 POP POP JUMPDEST DUP2 DUP1 PUSH2 0x18A SWAP1 PUSH2 0x4AF JUMP JUMPDEST SWAP3 POP POP PUSH2 0x81 JUMP JUMPDEST PUSH0 ISZERO ISZERO DUP2 ISZERO ISZERO SUB ISZERO PUSH2 0x1B1 JUMPI DUP3 DUP1 PUSH2 0x1A9 SWAP1 PUSH2 0x4AF JUMP JUMPDEST SWAP4 POP POP PUSH2 0x65 JUMP JUMPDEST DUP5 PUSH1 0x2 DUP7 MLOAD PUSH2 0x1C0 SWAP2 SWAP1 PUSH2 0x41C JUMP JUMPDEST DUP2 MLOAD DUP2 LT PUSH2 0x1D1 JUMPI PUSH2 0x1D0 PUSH2 0x482 JUMP JUMPDEST JUMPDEST PUSH1 0x20 MUL PUSH1 0x20 ADD ADD MLOAD SWAP4 POP POP POP POP SWAP2 SWAP1 POP JUMP JUMPDEST PUSH0 PUSH1 0x40 MLOAD SWAP1 POP SWAP1 JUMP JUMPDEST PUSH0 DUP1 REVERT JUMPDEST PUSH0 DUP1 REVERT JUMPDEST PUSH0 DUP1 REVERT JUMPDEST PUSH0 PUSH1 0x1F NOT PUSH1 0x1F DUP4 ADD AND SWAP1 POP SWAP2 SWAP1 POP JUMP JUMPDEST PUSH32 0x4E487B7100000000000000000000000000000000000000000000000000000000 PUSH0 MSTORE PUSH1 0x41 PUSH1 0x4 MSTORE PUSH1 0x24 PUSH0 REVERT JUMPDEST PUSH2 0x23E DUP3 PUSH2 0x1F8 JUMP JUMPDEST DUP2 ADD DUP2 DUP2 LT PUSH8 0xFFFFFFFFFFFFFFFF DUP3 GT OR ISZERO PUSH2 0x25D JUMPI PUSH2 0x25C PUSH2 0x208 JUMP JUMPDEST JUMPDEST DUP1 PUSH1 0x40 MSTORE POP POP POP JUMP JUMPDEST PUSH0 PUSH2 0x26F PUSH2 0x1E3 JUMP JUMPDEST SWAP1 POP PUSH2 0x27B DUP3 DUP3 PUSH2 0x235 JUMP JUMPDEST SWAP2 SWAP1 POP JUMP JUMPDEST PUSH0 PUSH8 0xFFFFFFFFFFFFFFFF DUP3 GT ISZERO PUSH2 0x29A JUMPI PUSH2 0x299 PUSH2 0x208 JUMP JUMPDEST JUMPDEST PUSH1 0x20 DUP3 MUL SWAP1 POP PUSH1 0x20 DUP2 ADD SWAP1 POP SWAP2 SWAP1 POP JUMP JUMPDEST PUSH0 DUP1 REVERT JUMPDEST PUSH0 DUP2 SWAP1 POP SWAP2 SWAP1 POP JUMP JUMPDEST PUSH2 0x2C1 DUP2 PUSH2 0x2AF JUMP JUMPDEST DUP2 EQ PUSH2 0x2CB JUMPI PUSH0 DUP1 REVERT JUMPDEST POP JUMP JUMPDEST PUSH0 DUP2 CALLDATALOAD SWAP1 POP PUSH2 0x2DC DUP2 PUSH2 0x2B8 JUMP JUMPDEST SWAP3 SWAP2 POP POP JUMP JUMPDEST PUSH0 PUSH2 0x2F4 PUSH2 0x2EF DUP5 PUSH2 0x280 JUMP JUMPDEST PUSH2 0x266 JUMP JUMPDEST SWAP1 POP DUP1 DUP4 DUP3 MSTORE PUSH1 0x20 DUP3 ADD SWAP1 POP PUSH1 0x20 DUP5 MUL DUP4 ADD DUP6 DUP2 GT ISZERO PUSH2 0x317 JUMPI PUSH2 0x316 PUSH2 0x2AB JUMP JUMPDEST JUMPDEST DUP4 JUMPDEST DUP2 DUP2 LT ISZERO PUSH2 0x340 JUMPI DUP1 PUSH2 0x32C DUP9 DUP3 PUSH2 0x2CE JUMP JUMPDEST DUP5 MSTORE PUSH1 0x20 DUP5 ADD SWAP4 POP POP PUSH1 0x20 DUP2 ADD SWAP1 POP PUSH2 0x319 JUMP JUMPDEST POP POP POP SWAP4 SWAP3 POP POP POP JUMP JUMPDEST PUSH0 DUP3 PUSH1 0x1F DUP4 ADD SLT PUSH2 0x35E JUMPI PUSH2 0x35D PUSH2 0x1F4 JUMP JUMPDEST JUMPDEST DUP2 CALLDATALOAD PUSH2 0x36E DUP5 DUP3 PUSH1 0x20 DUP7 ADD PUSH2 0x2E2 JUMP JUMPDEST SWAP2 POP POP SWAP3 SWAP2 POP POP JUMP JUMPDEST PUSH0 PUSH1 0x20 DUP3 DUP5 SUB SLT ISZERO PUSH2 0x38C JUMPI PUSH2 0x38B PUSH2 0x1EC JUMP JUMPDEST JUMPDEST PUSH0 DUP3 ADD CALLDATALOAD PUSH8 0xFFFFFFFFFFFFFFFF DUP2 GT ISZERO PUSH2 0x3A9 JUMPI PUSH2 0x3A8 PUSH2 0x1F0 JUMP JUMPDEST JUMPDEST PUSH2 0x3B5 DUP5 DUP3 DUP6 ADD PUSH2 0x34A JUMP JUMPDEST SWAP2 POP POP SWAP3 SWAP2 POP POP JUMP JUMPDEST PUSH2 0x3C7 DUP2 PUSH2 0x2AF JUMP JUMPDEST DUP3 MSTORE POP POP JUMP JUMPDEST PUSH0 PUSH1 0x20 DUP3 ADD SWAP1 POP PUSH2 0x3E0 PUSH0 DUP4 ADD DUP5 PUSH2 0x3BE JUMP JUMPDEST SWAP3 SWAP2 POP POP JUMP JUMPDEST PUSH0 DUP2 SWAP1 POP SWAP2 SWAP1 POP JUMP JUMPDEST PUSH32 0x4E487B7100000000000000000000000000000000000000000000000000000000 PUSH0 MSTORE PUSH1 0x11 PUSH1 0x4 MSTORE PUSH1 0x24 PUSH0 REVERT JUMPDEST PUSH0 PUSH2 0x426 DUP3 PUSH2 0x3E6 JUMP JUMPDEST SWAP2 POP PUSH2 0x431 DUP4 PUSH2 0x3E6 JUMP JUMPDEST SWAP3 POP DUP3 DUP3 SUB SWAP1 POP DUP2 DUP2 GT ISZERO PUSH2 0x449 JUMPI PUSH2 0x448 PUSH2 0x3EF JUMP JUMPDEST JUMPDEST SWAP3 SWAP2 POP POP JUMP JUMPDEST PUSH0 PUSH2 0x459 DUP3 PUSH2 0x3E6 JUMP JUMPDEST SWAP2 POP PUSH2 0x464 DUP4 PUSH2 0x3E6 JUMP JUMPDEST SWAP3 POP DUP3 DUP3 ADD SWAP1 POP DUP1 DUP3 GT ISZERO PUSH2 0x47C JUMPI PUSH2 0x47B PUSH2 0x3EF JUMP JUMPDEST JUMPDEST SWAP3 SWAP2 POP POP JUMP JUMPDEST PUSH32 0x4E487B7100000000000000000000000000000000000000000000000000000000 PUSH0 MSTORE PUSH1 0x32 PUSH1 0x4 MSTORE PUSH1 0x24 PUSH0 REVERT JUMPDEST PUSH0 PUSH2 0x4B9 DUP3 PUSH2 0x3E6 JUMP JUMPDEST SWAP2 POP PUSH32 0xFFFFFFFFFFFFFFFFFFFFFFFFFFFFFFFFFFFFFFFFFFFFFFFFFFFFFFFFFFFFFFFF DUP3 SUB PUSH2 0x4EB JUMPI PUSH2 0x4EA PUSH2 0x3EF JUMP JUMPDEST JUMPDEST PUSH1 0x1 DUP3 ADD SWAP1 POP SWAP2 SWAP1 POP JUMP INVALID LOG2 PUSH5 0x6970667358 0x22 SLT KECCAK256 CREATE 0xD6 0xD3 DIV CALLDATASIZE GASLIMIT 0xE2 0xE9 0xEA SLT SDIV 0xD1 0x5C 0xCE PC 0xF8 0xB0 DUP16 ADD MOD 0x22 PUSH26 0x46769723D06BEC20284064736F6C634300081500330000000000 "
				},
				"gasEstimates": {
					"creation": {
						"codeDepositCost": "264800",
						"executionCost": "304",
						"totalCost": "265104"
					},
					"external": {
						"findSecondLargest(int256[])": "infinite"
					}
				},
				"methodIdentifiers": {
					"findSecondLargest(int256[])": "5545f8f4"
				}
			},
			"storageLayout": {
				"storage": [],
				"types": null
			},
			"userdoc": {
				"kind": "user",
				"methods": {},
				"version": 1
			}
		}
	}
}