{
	"DappWorld/easy/transaction.sol": {
		"MyContract": {
			"abi": [
				{
					"inputs": [],
					"name": "deposit",
					"outputs": [],
					"stateMutability": "payable",
					"type": "function"
				},
				{
					"inputs": [],
					"name": "get_balance",
					"outputs": [
						{
							"internalType": "uint256",
							"name": "",
							"type": "uint256"
						}
					],
					"stateMutability": "view",
					"type": "function"
				},
				{
					"inputs": [
						{
							"internalType": "address",
							"name": "",
							"type": "address"
						}
					],
					"name": "user_account",
					"outputs": [
						{
							"internalType": "uint256",
							"name": "",
							"type": "uint256"
						}
					],
					"stateMutability": "view",
					"type": "function"
				},
				{
					"inputs": [
						{
							"internalType": "uint256",
							"name": "amount",
							"type": "uint256"
						}
					],
					"name": "withdraw",
					"outputs": [],
					"stateMutability": "nonpayable",
					"type": "function"
				}
			],
			"devdoc": {
				"kind": "dev",
				"methods": {},
				"version": 1
			},
			"evm": {
				"assembly": "    /* \"DappWorld/easy/transaction.sol\":72:730  contract MyContract {\r... */\n  mstore(0x40, 0x80)\n  callvalue\n  dup1\n  iszero\n  tag_1\n  jumpi\n  0x00\n  dup1\n  revert\ntag_1:\n  pop\n  dataSize(sub_0)\n  dup1\n  dataOffset(sub_0)\n  0x00\n  codecopy\n  0x00\n  return\nstop\n\nsub_0: assembly {\n        /* \"DappWorld/easy/transaction.sol\":72:730  contract MyContract {\r... */\n      mstore(0x40, 0x80)\n      jumpi(tag_1, lt(calldatasize, 0x04))\n      shr(0xe0, calldataload(0x00))\n      dup1\n      0x2e1a7d4d\n      eq\n      tag_2\n      jumpi\n      dup1\n      0x60e0049c\n      eq\n      tag_3\n      jumpi\n      dup1\n      0xc1cfb99a\n      eq\n      tag_4\n      jumpi\n      dup1\n      0xd0e30db0\n      eq\n      tag_5\n      jumpi\n    tag_1:\n      0x00\n      dup1\n      revert\n        /* \"DappWorld/easy/transaction.sol\":307:619  function withdraw(uint amount) public {\r... */\n    tag_2:\n      callvalue\n      dup1\n      iszero\n      tag_6\n      jumpi\n      0x00\n      dup1\n      revert\n    tag_6:\n      pop\n      tag_7\n      0x04\n      dup1\n      calldatasize\n      sub\n      dup2\n      add\n      swap1\n      tag_8\n      swap2\n      swap1\n      tag_9\n      jump\t// in\n    tag_8:\n      tag_10\n      jump\t// in\n    tag_7:\n      stop\n        /* \"DappWorld/easy/transaction.sol\":99:143  mapping(address => uint) public user_account */\n    tag_3:\n      callvalue\n      dup1\n      iszero\n      tag_11\n      jumpi\n      0x00\n      dup1\n      revert\n    tag_11:\n      pop\n      tag_12\n      0x04\n      dup1\n      calldatasize\n      sub\n      dup2\n      add\n      swap1\n      tag_13\n      swap2\n      swap1\n      tag_14\n      jump\t// in\n    tag_13:\n      tag_15\n      jump\t// in\n    tag_12:\n      mload(0x40)\n      tag_16\n      swap2\n      swap1\n      tag_17\n      jump\t// in\n    tag_16:\n      mload(0x40)\n      dup1\n      swap2\n      sub\n      swap1\n      return\n        /* \"DappWorld/easy/transaction.sol\":627:727  function get_balance() public view returns (uint) {\r... */\n    tag_4:\n      callvalue\n      dup1\n      iszero\n      tag_18\n      jumpi\n      0x00\n      dup1\n      revert\n    tag_18:\n      pop\n      tag_19\n      tag_20\n      jump\t// in\n    tag_19:\n      mload(0x40)\n      tag_21\n      swap2\n      swap1\n      tag_17\n      jump\t// in\n    tag_21:\n      mload(0x40)\n      dup1\n      swap2\n      sub\n      swap1\n      return\n        /* \"DappWorld/easy/transaction.sol\":152:299  function deposit() public payable {\r... */\n    tag_5:\n      tag_22\n      tag_23\n      jump\t// in\n    tag_22:\n      stop\n        /* \"DappWorld/easy/transaction.sol\":307:619  function withdraw(uint amount) public {\r... */\n    tag_10:\n        /* \"DappWorld/easy/transaction.sol\":373:374  0 */\n      0x00\n        /* \"DappWorld/easy/transaction.sol\":364:370  amount */\n      dup2\n        /* \"DappWorld/easy/transaction.sol\":364:374  amount > 0 */\n      gt\n        /* \"DappWorld/easy/transaction.sol\":356:419  require(amount > 0, \"Withdrawal amount must be greater than 0\") */\n      tag_25\n      jumpi\n      mload(0x40)\n      0x08c379a000000000000000000000000000000000000000000000000000000000\n      dup2\n      mstore\n      0x04\n      add\n      tag_26\n      swap1\n      tag_27\n      jump\t// in\n    tag_26:\n      mload(0x40)\n      dup1\n      swap2\n      sub\n      swap1\n      revert\n    tag_25:\n        /* \"DappWorld/easy/transaction.sol\":467:473  amount */\n      dup1\n        /* \"DappWorld/easy/transaction.sol\":438:450  user_account */\n      0x00\n        /* \"DappWorld/easy/transaction.sol\":438:462  user_account[msg.sender] */\n      dup1\n        /* \"DappWorld/easy/transaction.sol\":451:461  msg.sender */\n      caller\n        /* \"DappWorld/easy/transaction.sol\":438:462  user_account[msg.sender] */\n      0xffffffffffffffffffffffffffffffffffffffff\n      and\n      0xffffffffffffffffffffffffffffffffffffffff\n      and\n      dup2\n      mstore\n      0x20\n      add\n      swap1\n      dup2\n      mstore\n      0x20\n      add\n      0x00\n      keccak256\n      sload\n        /* \"DappWorld/easy/transaction.sol\":438:474  user_account[msg.sender] >= (amount) */\n      lt\n      iszero\n        /* \"DappWorld/easy/transaction.sol\":430:499  require(user_account[msg.sender] >= (amount), \"Insufficient balance\") */\n      tag_28\n      jumpi\n      mload(0x40)\n      0x08c379a000000000000000000000000000000000000000000000000000000000\n      dup2\n      mstore\n      0x04\n      add\n      tag_29\n      swap1\n      tag_30\n      jump\t// in\n    tag_29:\n      mload(0x40)\n      dup1\n      swap2\n      sub\n      swap1\n      revert\n    tag_28:\n        /* \"DappWorld/easy/transaction.sol\":549:555  amount */\n      dup1\n        /* \"DappWorld/easy/transaction.sol\":520:532  user_account */\n      0x00\n        /* \"DappWorld/easy/transaction.sol\":520:544  user_account[msg.sender] */\n      dup1\n        /* \"DappWorld/easy/transaction.sol\":533:543  msg.sender */\n      caller\n        /* \"DappWorld/easy/transaction.sol\":520:544  user_account[msg.sender] */\n      0xffffffffffffffffffffffffffffffffffffffff\n      and\n      0xffffffffffffffffffffffffffffffffffffffff\n      and\n      dup2\n      mstore\n      0x20\n      add\n      swap1\n      dup2\n      mstore\n      0x20\n      add\n      0x00\n      keccak256\n      0x00\n        /* \"DappWorld/easy/transaction.sol\":520:555  user_account[msg.sender] -=  amount */\n      dup3\n      dup3\n      sload\n      tag_31\n      swap2\n      swap1\n      tag_32\n      jump\t// in\n    tag_31:\n      swap3\n      pop\n      pop\n      dup2\n      swap1\n      sstore\n      pop\n        /* \"DappWorld/easy/transaction.sol\":574:584  msg.sender */\n      caller\n        /* \"DappWorld/easy/transaction.sol\":566:594  payable(msg.sender).transfer */\n      0xffffffffffffffffffffffffffffffffffffffff\n      and\n        /* \"DappWorld/easy/transaction.sol\":566:611  payable(msg.sender).transfer(amount *10 **18) */\n      0x08fc\n        /* \"DappWorld/easy/transaction.sol\":603:610  10 **18 */\n      0x0de0b6b3a7640000\n        /* \"DappWorld/easy/transaction.sol\":595:601  amount */\n      dup4\n        /* \"DappWorld/easy/transaction.sol\":595:610  amount *10 **18 */\n      tag_33\n      swap2\n      swap1\n      tag_34\n      jump\t// in\n    tag_33:\n        /* \"DappWorld/easy/transaction.sol\":566:611  payable(msg.sender).transfer(amount *10 **18) */\n      swap1\n      dup2\n      iszero\n      mul\n      swap1\n      mload(0x40)\n      0x00\n      mload(0x40)\n      dup1\n      dup4\n      sub\n      dup2\n      dup6\n      dup9\n      dup9\n      call\n      swap4\n      pop\n      pop\n      pop\n      pop\n      iszero\n      dup1\n      iszero\n      tag_36\n      jumpi\n      returndatasize\n      0x00\n      dup1\n      returndatacopy\n      revert(0x00, returndatasize)\n    tag_36:\n      pop\n        /* \"DappWorld/easy/transaction.sol\":307:619  function withdraw(uint amount) public {\r... */\n      pop\n      jump\t// out\n        /* \"DappWorld/easy/transaction.sol\":99:143  mapping(address => uint) public user_account */\n    tag_15:\n      mstore(0x20, 0x00)\n      dup1\n      0x00\n      mstore\n      keccak256(0x00, 0x40)\n      0x00\n      swap2\n      pop\n      swap1\n      pop\n      sload\n      dup2\n      jump\t// out\n        /* \"DappWorld/easy/transaction.sol\":627:727  function get_balance() public view returns (uint) {\r... */\n    tag_20:\n        /* \"DappWorld/easy/transaction.sol\":671:675  uint */\n      0x00\n        /* \"DappWorld/easy/transaction.sol\":695:707  user_account */\n      dup1\n        /* \"DappWorld/easy/transaction.sol\":695:719  user_account[msg.sender] */\n      0x00\n        /* \"DappWorld/easy/transaction.sol\":708:718  msg.sender */\n      caller\n        /* \"DappWorld/easy/transaction.sol\":695:719  user_account[msg.sender] */\n      0xffffffffffffffffffffffffffffffffffffffff\n      and\n      0xffffffffffffffffffffffffffffffffffffffff\n      and\n      dup2\n      mstore\n      0x20\n      add\n      swap1\n      dup2\n      mstore\n      0x20\n      add\n      0x00\n      keccak256\n      sload\n        /* \"DappWorld/easy/transaction.sol\":688:719  return user_account[msg.sender] */\n      swap1\n      pop\n        /* \"DappWorld/easy/transaction.sol\":627:727  function get_balance() public view returns (uint) {\r... */\n      swap1\n      jump\t// out\n        /* \"DappWorld/easy/transaction.sol\":152:299  function deposit() public payable {\r... */\n    tag_23:\n        /* \"DappWorld/easy/transaction.sol\":217:218  0 */\n      0x00\n        /* \"DappWorld/easy/transaction.sol\":205:214  msg.value */\n      callvalue\n        /* \"DappWorld/easy/transaction.sol\":205:218  msg.value > 0 */\n      gt\n        /* \"DappWorld/easy/transaction.sol\":197:241  require(msg.value > 0, \"Deposit can't be 0\") */\n      tag_39\n      jumpi\n      mload(0x40)\n      0x08c379a000000000000000000000000000000000000000000000000000000000\n      dup2\n      mstore\n      0x04\n      add\n      tag_40\n      swap1\n      tag_41\n      jump\t// in\n    tag_40:\n      mload(0x40)\n      dup1\n      swap2\n      sub\n      swap1\n      revert\n    tag_39:\n        /* \"DappWorld/easy/transaction.sol\":281:290  msg.value */\n      callvalue\n        /* \"DappWorld/easy/transaction.sol\":252:264  user_account */\n      0x00\n        /* \"DappWorld/easy/transaction.sol\":252:276  user_account[msg.sender] */\n      dup1\n        /* \"DappWorld/easy/transaction.sol\":265:275  msg.sender */\n      caller\n        /* \"DappWorld/easy/transaction.sol\":252:276  user_account[msg.sender] */\n      0xffffffffffffffffffffffffffffffffffffffff\n      and\n      0xffffffffffffffffffffffffffffffffffffffff\n      and\n      dup2\n      mstore\n      0x20\n      add\n      swap1\n      dup2\n      mstore\n      0x20\n      add\n      0x00\n      keccak256\n      0x00\n        /* \"DappWorld/easy/transaction.sol\":252:291  user_account[msg.sender] += (msg.value) */\n      dup3\n      dup3\n      sload\n      tag_42\n      swap2\n      swap1\n      tag_43\n      jump\t// in\n    tag_42:\n      swap3\n      pop\n      pop\n      dup2\n      swap1\n      sstore\n      pop\n        /* \"DappWorld/easy/transaction.sol\":152:299  function deposit() public payable {\r... */\n      jump\t// out\n        /* \"#utility.yul\":7:146   */\n    tag_45:\n        /* \"#utility.yul\":53:58   */\n      0x00\n        /* \"#utility.yul\":91:97   */\n      dup2\n        /* \"#utility.yul\":78:98   */\n      calldataload\n        /* \"#utility.yul\":69:98   */\n      swap1\n      pop\n        /* \"#utility.yul\":107:140   */\n      tag_47\n        /* \"#utility.yul\":134:139   */\n      dup2\n        /* \"#utility.yul\":107:140   */\n      tag_48\n      jump\t// in\n    tag_47:\n        /* \"#utility.yul\":59:146   */\n      swap3\n      swap2\n      pop\n      pop\n      jump\t// out\n        /* \"#utility.yul\":152:291   */\n    tag_49:\n        /* \"#utility.yul\":198:203   */\n      0x00\n        /* \"#utility.yul\":236:242   */\n      dup2\n        /* \"#utility.yul\":223:243   */\n      calldataload\n        /* \"#utility.yul\":214:243   */\n      swap1\n      pop\n        /* \"#utility.yul\":252:285   */\n      tag_51\n        /* \"#utility.yul\":279:284   */\n      dup2\n        /* \"#utility.yul\":252:285   */\n      tag_52\n      jump\t// in\n    tag_51:\n        /* \"#utility.yul\":204:291   */\n      swap3\n      swap2\n      pop\n      pop\n      jump\t// out\n        /* \"#utility.yul\":297:626   */\n    tag_14:\n        /* \"#utility.yul\":356:362   */\n      0x00\n        /* \"#utility.yul\":405:407   */\n      0x20\n        /* \"#utility.yul\":393:402   */\n      dup3\n        /* \"#utility.yul\":384:391   */\n      dup5\n        /* \"#utility.yul\":380:403   */\n      sub\n        /* \"#utility.yul\":376:408   */\n      slt\n        /* \"#utility.yul\":373:375   */\n      iszero\n      tag_54\n      jumpi\n        /* \"#utility.yul\":411:490   */\n      tag_55\n      tag_56\n      jump\t// in\n    tag_55:\n        /* \"#utility.yul\":373:375   */\n    tag_54:\n        /* \"#utility.yul\":531:532   */\n      0x00\n        /* \"#utility.yul\":556:609   */\n      tag_57\n        /* \"#utility.yul\":601:608   */\n      dup5\n        /* \"#utility.yul\":592:598   */\n      dup3\n        /* \"#utility.yul\":581:590   */\n      dup6\n        /* \"#utility.yul\":577:599   */\n      add\n        /* \"#utility.yul\":556:609   */\n      tag_45\n      jump\t// in\n    tag_57:\n        /* \"#utility.yul\":546:609   */\n      swap2\n      pop\n        /* \"#utility.yul\":502:619   */\n      pop\n        /* \"#utility.yul\":363:626   */\n      swap3\n      swap2\n      pop\n      pop\n      jump\t// out\n        /* \"#utility.yul\":632:961   */\n    tag_9:\n        /* \"#utility.yul\":691:697   */\n      0x00\n        /* \"#utility.yul\":740:742   */\n      0x20\n        /* \"#utility.yul\":728:737   */\n      dup3\n        /* \"#utility.yul\":719:726   */\n      dup5\n        /* \"#utility.yul\":715:738   */\n      sub\n        /* \"#utility.yul\":711:743   */\n      slt\n        /* \"#utility.yul\":708:710   */\n      iszero\n      tag_59\n      jumpi\n        /* \"#utility.yul\":746:825   */\n      tag_60\n      tag_56\n      jump\t// in\n    tag_60:\n        /* \"#utility.yul\":708:710   */\n    tag_59:\n        /* \"#utility.yul\":866:867   */\n      0x00\n        /* \"#utility.yul\":891:944   */\n      tag_61\n        /* \"#utility.yul\":936:943   */\n      dup5\n        /* \"#utility.yul\":927:933   */\n      dup3\n        /* \"#utility.yul\":916:925   */\n      dup6\n        /* \"#utility.yul\":912:934   */\n      add\n        /* \"#utility.yul\":891:944   */\n      tag_49\n      jump\t// in\n    tag_61:\n        /* \"#utility.yul\":881:944   */\n      swap2\n      pop\n        /* \"#utility.yul\":837:954   */\n      pop\n        /* \"#utility.yul\":698:961   */\n      swap3\n      swap2\n      pop\n      pop\n      jump\t// out\n        /* \"#utility.yul\":967:1333   */\n    tag_62:\n        /* \"#utility.yul\":1109:1112   */\n      0x00\n        /* \"#utility.yul\":1130:1197   */\n      tag_64\n        /* \"#utility.yul\":1194:1196   */\n      0x14\n        /* \"#utility.yul\":1189:1192   */\n      dup4\n        /* \"#utility.yul\":1130:1197   */\n      tag_65\n      jump\t// in\n    tag_64:\n        /* \"#utility.yul\":1123:1197   */\n      swap2\n      pop\n        /* \"#utility.yul\":1206:1299   */\n      tag_66\n        /* \"#utility.yul\":1295:1298   */\n      dup3\n        /* \"#utility.yul\":1206:1299   */\n      tag_67\n      jump\t// in\n    tag_66:\n        /* \"#utility.yul\":1324:1326   */\n      0x20\n        /* \"#utility.yul\":1319:1322   */\n      dup3\n        /* \"#utility.yul\":1315:1327   */\n      add\n        /* \"#utility.yul\":1308:1327   */\n      swap1\n      pop\n        /* \"#utility.yul\":1113:1333   */\n      swap2\n      swap1\n      pop\n      jump\t// out\n        /* \"#utility.yul\":1339:1705   */\n    tag_68:\n        /* \"#utility.yul\":1481:1484   */\n      0x00\n        /* \"#utility.yul\":1502:1569   */\n      tag_70\n        /* \"#utility.yul\":1566:1568   */\n      0x28\n        /* \"#utility.yul\":1561:1564   */\n      dup4\n        /* \"#utility.yul\":1502:1569   */\n      tag_65\n      jump\t// in\n    tag_70:\n        /* \"#utility.yul\":1495:1569   */\n      swap2\n      pop\n        /* \"#utility.yul\":1578:1671   */\n      tag_71\n        /* \"#utility.yul\":1667:1670   */\n      dup3\n        /* \"#utility.yul\":1578:1671   */\n      tag_72\n      jump\t// in\n    tag_71:\n        /* \"#utility.yul\":1696:1698   */\n      0x40\n        /* \"#utility.yul\":1691:1694   */\n      dup3\n        /* \"#utility.yul\":1687:1699   */\n      add\n        /* \"#utility.yul\":1680:1699   */\n      swap1\n      pop\n        /* \"#utility.yul\":1485:1705   */\n      swap2\n      swap1\n      pop\n      jump\t// out\n        /* \"#utility.yul\":1711:2077   */\n    tag_73:\n        /* \"#utility.yul\":1853:1856   */\n      0x00\n        /* \"#utility.yul\":1874:1941   */\n      tag_75\n        /* \"#utility.yul\":1938:1940   */\n      0x12\n        /* \"#utility.yul\":1933:1936   */\n      dup4\n        /* \"#utility.yul\":1874:1941   */\n      tag_65\n      jump\t// in\n    tag_75:\n        /* \"#utility.yul\":1867:1941   */\n      swap2\n      pop\n        /* \"#utility.yul\":1950:2043   */\n      tag_76\n        /* \"#utility.yul\":2039:2042   */\n      dup3\n        /* \"#utility.yul\":1950:2043   */\n      tag_77\n      jump\t// in\n    tag_76:\n        /* \"#utility.yul\":2068:2070   */\n      0x20\n        /* \"#utility.yul\":2063:2066   */\n      dup3\n        /* \"#utility.yul\":2059:2071   */\n      add\n        /* \"#utility.yul\":2052:2071   */\n      swap1\n      pop\n        /* \"#utility.yul\":1857:2077   */\n      swap2\n      swap1\n      pop\n      jump\t// out\n        /* \"#utility.yul\":2083:2201   */\n    tag_78:\n        /* \"#utility.yul\":2170:2194   */\n      tag_80\n        /* \"#utility.yul\":2188:2193   */\n      dup2\n        /* \"#utility.yul\":2170:2194   */\n      tag_81\n      jump\t// in\n    tag_80:\n        /* \"#utility.yul\":2165:2168   */\n      dup3\n        /* \"#utility.yul\":2158:2195   */\n      mstore\n        /* \"#utility.yul\":2148:2201   */\n      pop\n      pop\n      jump\t// out\n        /* \"#utility.yul\":2207:2626   */\n    tag_30:\n        /* \"#utility.yul\":2373:2377   */\n      0x00\n        /* \"#utility.yul\":2411:2413   */\n      0x20\n        /* \"#utility.yul\":2400:2409   */\n      dup3\n        /* \"#utility.yul\":2396:2414   */\n      add\n        /* \"#utility.yul\":2388:2414   */\n      swap1\n      pop\n        /* \"#utility.yul\":2460:2469   */\n      dup2\n        /* \"#utility.yul\":2454:2458   */\n      dup2\n        /* \"#utility.yul\":2450:2470   */\n      sub\n        /* \"#utility.yul\":2446:2447   */\n      0x00\n        /* \"#utility.yul\":2435:2444   */\n      dup4\n        /* \"#utility.yul\":2431:2448   */\n      add\n        /* \"#utility.yul\":2424:2471   */\n      mstore\n        /* \"#utility.yul\":2488:2619   */\n      tag_83\n        /* \"#utility.yul\":2614:2618   */\n      dup2\n        /* \"#utility.yul\":2488:2619   */\n      tag_62\n      jump\t// in\n    tag_83:\n        /* \"#utility.yul\":2480:2619   */\n      swap1\n      pop\n        /* \"#utility.yul\":2378:2626   */\n      swap2\n      swap1\n      pop\n      jump\t// out\n        /* \"#utility.yul\":2632:3051   */\n    tag_27:\n        /* \"#utility.yul\":2798:2802   */\n      0x00\n        /* \"#utility.yul\":2836:2838   */\n      0x20\n        /* \"#utility.yul\":2825:2834   */\n      dup3\n        /* \"#utility.yul\":2821:2839   */\n      add\n        /* \"#utility.yul\":2813:2839   */\n      swap1\n      pop\n        /* \"#utility.yul\":2885:2894   */\n      dup2\n        /* \"#utility.yul\":2879:2883   */\n      dup2\n        /* \"#utility.yul\":2875:2895   */\n      sub\n        /* \"#utility.yul\":2871:2872   */\n      0x00\n        /* \"#utility.yul\":2860:2869   */\n      dup4\n        /* \"#utility.yul\":2856:2873   */\n      add\n        /* \"#utility.yul\":2849:2896   */\n      mstore\n        /* \"#utility.yul\":2913:3044   */\n      tag_85\n        /* \"#utility.yul\":3039:3043   */\n      dup2\n        /* \"#utility.yul\":2913:3044   */\n      tag_68\n      jump\t// in\n    tag_85:\n        /* \"#utility.yul\":2905:3044   */\n      swap1\n      pop\n        /* \"#utility.yul\":2803:3051   */\n      swap2\n      swap1\n      pop\n      jump\t// out\n        /* \"#utility.yul\":3057:3476   */\n    tag_41:\n        /* \"#utility.yul\":3223:3227   */\n      0x00\n        /* \"#utility.yul\":3261:3263   */\n      0x20\n        /* \"#utility.yul\":3250:3259   */\n      dup3\n        /* \"#utility.yul\":3246:3264   */\n      add\n        /* \"#utility.yul\":3238:3264   */\n      swap1\n      pop\n        /* \"#utility.yul\":3310:3319   */\n      dup2\n        /* \"#utility.yul\":3304:3308   */\n      dup2\n        /* \"#utility.yul\":3300:3320   */\n      sub\n        /* \"#utility.yul\":3296:3297   */\n      0x00\n        /* \"#utility.yul\":3285:3294   */\n      dup4\n        /* \"#utility.yul\":3281:3298   */\n      add\n        /* \"#utility.yul\":3274:3321   */\n      mstore\n        /* \"#utility.yul\":3338:3469   */\n      tag_87\n        /* \"#utility.yul\":3464:3468   */\n      dup2\n        /* \"#utility.yul\":3338:3469   */\n      tag_73\n      jump\t// in\n    tag_87:\n        /* \"#utility.yul\":3330:3469   */\n      swap1\n      pop\n        /* \"#utility.yul\":3228:3476   */\n      swap2\n      swap1\n      pop\n      jump\t// out\n        /* \"#utility.yul\":3482:3704   */\n    tag_17:\n        /* \"#utility.yul\":3575:3579   */\n      0x00\n        /* \"#utility.yul\":3613:3615   */\n      0x20\n        /* \"#utility.yul\":3602:3611   */\n      dup3\n        /* \"#utility.yul\":3598:3616   */\n      add\n        /* \"#utility.yul\":3590:3616   */\n      swap1\n      pop\n        /* \"#utility.yul\":3626:3697   */\n      tag_89\n        /* \"#utility.yul\":3694:3695   */\n      0x00\n        /* \"#utility.yul\":3683:3692   */\n      dup4\n        /* \"#utility.yul\":3679:3696   */\n      add\n        /* \"#utility.yul\":3670:3676   */\n      dup5\n        /* \"#utility.yul\":3626:3697   */\n      tag_78\n      jump\t// in\n    tag_89:\n        /* \"#utility.yul\":3580:3704   */\n      swap3\n      swap2\n      pop\n      pop\n      jump\t// out\n        /* \"#utility.yul\":3791:3960   */\n    tag_65:\n        /* \"#utility.yul\":3875:3886   */\n      0x00\n        /* \"#utility.yul\":3909:3915   */\n      dup3\n        /* \"#utility.yul\":3904:3907   */\n      dup3\n        /* \"#utility.yul\":3897:3916   */\n      mstore\n        /* \"#utility.yul\":3949:3953   */\n      0x20\n        /* \"#utility.yul\":3944:3947   */\n      dup3\n        /* \"#utility.yul\":3940:3954   */\n      add\n        /* \"#utility.yul\":3925:3954   */\n      swap1\n      pop\n        /* \"#utility.yul\":3887:3960   */\n      swap3\n      swap2\n      pop\n      pop\n      jump\t// out\n        /* \"#utility.yul\":3966:4271   */\n    tag_43:\n        /* \"#utility.yul\":4006:4009   */\n      0x00\n        /* \"#utility.yul\":4025:4045   */\n      tag_94\n        /* \"#utility.yul\":4043:4044   */\n      dup3\n        /* \"#utility.yul\":4025:4045   */\n      tag_81\n      jump\t// in\n    tag_94:\n        /* \"#utility.yul\":4020:4045   */\n      swap2\n      pop\n        /* \"#utility.yul\":4059:4079   */\n      tag_95\n        /* \"#utility.yul\":4077:4078   */\n      dup4\n        /* \"#utility.yul\":4059:4079   */\n      tag_81\n      jump\t// in\n    tag_95:\n        /* \"#utility.yul\":4054:4079   */\n      swap3\n      pop\n        /* \"#utility.yul\":4213:4214   */\n      dup3\n        /* \"#utility.yul\":4145:4211   */\n      0xffffffffffffffffffffffffffffffffffffffffffffffffffffffffffffffff\n        /* \"#utility.yul\":4141:4215   */\n      sub\n        /* \"#utility.yul\":4138:4139   */\n      dup3\n        /* \"#utility.yul\":4135:4216   */\n      gt\n        /* \"#utility.yul\":4132:4134   */\n      iszero\n      tag_96\n      jumpi\n        /* \"#utility.yul\":4219:4237   */\n      tag_97\n      tag_98\n      jump\t// in\n    tag_97:\n        /* \"#utility.yul\":4132:4134   */\n    tag_96:\n        /* \"#utility.yul\":4263:4264   */\n      dup3\n        /* \"#utility.yul\":4260:4261   */\n      dup3\n        /* \"#utility.yul\":4256:4265   */\n      add\n        /* \"#utility.yul\":4249:4265   */\n      swap1\n      pop\n        /* \"#utility.yul\":4010:4271   */\n      swap3\n      swap2\n      pop\n      pop\n      jump\t// out\n        /* \"#utility.yul\":4277:4625   */\n    tag_34:\n        /* \"#utility.yul\":4317:4324   */\n      0x00\n        /* \"#utility.yul\":4340:4360   */\n      tag_100\n        /* \"#utility.yul\":4358:4359   */\n      dup3\n        /* \"#utility.yul\":4340:4360   */\n      tag_81\n      jump\t// in\n    tag_100:\n        /* \"#utility.yul\":4335:4360   */\n      swap2\n      pop\n        /* \"#utility.yul\":4374:4394   */\n      tag_101\n        /* \"#utility.yul\":4392:4393   */\n      dup4\n        /* \"#utility.yul\":4374:4394   */\n      tag_81\n      jump\t// in\n    tag_101:\n        /* \"#utility.yul\":4369:4394   */\n      swap3\n      pop\n        /* \"#utility.yul\":4562:4563   */\n      dup2\n        /* \"#utility.yul\":4494:4560   */\n      0xffffffffffffffffffffffffffffffffffffffffffffffffffffffffffffffff\n        /* \"#utility.yul\":4490:4564   */\n      div\n        /* \"#utility.yul\":4487:4488   */\n      dup4\n        /* \"#utility.yul\":4484:4565   */\n      gt\n        /* \"#utility.yul\":4479:4480   */\n      dup3\n        /* \"#utility.yul\":4472:4481   */\n      iszero\n        /* \"#utility.yul\":4465:4482   */\n      iszero\n        /* \"#utility.yul\":4461:4566   */\n      and\n        /* \"#utility.yul\":4458:4460   */\n      iszero\n      tag_102\n      jumpi\n        /* \"#utility.yul\":4569:4587   */\n      tag_103\n      tag_98\n      jump\t// in\n    tag_103:\n        /* \"#utility.yul\":4458:4460   */\n    tag_102:\n        /* \"#utility.yul\":4617:4618   */\n      dup3\n        /* \"#utility.yul\":4614:4615   */\n      dup3\n        /* \"#utility.yul\":4610:4619   */\n      mul\n        /* \"#utility.yul\":4599:4619   */\n      swap1\n      pop\n        /* \"#utility.yul\":4325:4625   */\n      swap3\n      swap2\n      pop\n      pop\n      jump\t// out\n        /* \"#utility.yul\":4631:4822   */\n    tag_32:\n        /* \"#utility.yul\":4671:4675   */\n      0x00\n        /* \"#utility.yul\":4691:4711   */\n      tag_105\n        /* \"#utility.yul\":4709:4710   */\n      dup3\n        /* \"#utility.yul\":4691:4711   */\n      tag_81\n      jump\t// in\n    tag_105:\n        /* \"#utility.yul\":4686:4711   */\n      swap2\n      pop\n        /* \"#utility.yul\":4725:4745   */\n      tag_106\n        /* \"#utility.yul\":4743:4744   */\n      dup4\n        /* \"#utility.yul\":4725:4745   */\n      tag_81\n      jump\t// in\n    tag_106:\n        /* \"#utility.yul\":4720:4745   */\n      swap3\n      pop\n        /* \"#utility.yul\":4764:4765   */\n      dup3\n        /* \"#utility.yul\":4761:4762   */\n      dup3\n        /* \"#utility.yul\":4758:4766   */\n      lt\n        /* \"#utility.yul\":4755:4757   */\n      iszero\n      tag_107\n      jumpi\n        /* \"#utility.yul\":4769:4787   */\n      tag_108\n      tag_98\n      jump\t// in\n    tag_108:\n        /* \"#utility.yul\":4755:4757   */\n    tag_107:\n        /* \"#utility.yul\":4814:4815   */\n      dup3\n        /* \"#utility.yul\":4811:4812   */\n      dup3\n        /* \"#utility.yul\":4807:4816   */\n      sub\n        /* \"#utility.yul\":4799:4816   */\n      swap1\n      pop\n        /* \"#utility.yul\":4676:4822   */\n      swap3\n      swap2\n      pop\n      pop\n      jump\t// out\n        /* \"#utility.yul\":4828:4924   */\n    tag_109:\n        /* \"#utility.yul\":4865:4872   */\n      0x00\n        /* \"#utility.yul\":4894:4918   */\n      tag_111\n        /* \"#utility.yul\":4912:4917   */\n      dup3\n        /* \"#utility.yul\":4894:4918   */\n      tag_112\n      jump\t// in\n    tag_111:\n        /* \"#utility.yul\":4883:4918   */\n      swap1\n      pop\n        /* \"#utility.yul\":4873:4924   */\n      swap2\n      swap1\n      pop\n      jump\t// out\n        /* \"#utility.yul\":4930:5056   */\n    tag_112:\n        /* \"#utility.yul\":4967:4974   */\n      0x00\n        /* \"#utility.yul\":5007:5049   */\n      0xffffffffffffffffffffffffffffffffffffffff\n        /* \"#utility.yul\":5000:5005   */\n      dup3\n        /* \"#utility.yul\":4996:5050   */\n      and\n        /* \"#utility.yul\":4985:5050   */\n      swap1\n      pop\n        /* \"#utility.yul\":4975:5056   */\n      swap2\n      swap1\n      pop\n      jump\t// out\n        /* \"#utility.yul\":5062:5139   */\n    tag_81:\n        /* \"#utility.yul\":5099:5106   */\n      0x00\n        /* \"#utility.yul\":5128:5133   */\n      dup2\n        /* \"#utility.yul\":5117:5133   */\n      swap1\n      pop\n        /* \"#utility.yul\":5107:5139   */\n      swap2\n      swap1\n      pop\n      jump\t// out\n        /* \"#utility.yul\":5145:5325   */\n    tag_98:\n        /* \"#utility.yul\":5193:5270   */\n      0x4e487b7100000000000000000000000000000000000000000000000000000000\n        /* \"#utility.yul\":5190:5191   */\n      0x00\n        /* \"#utility.yul\":5183:5271   */\n      mstore\n        /* \"#utility.yul\":5290:5294   */\n      0x11\n        /* \"#utility.yul\":5287:5288   */\n      0x04\n        /* \"#utility.yul\":5280:5295   */\n      mstore\n        /* \"#utility.yul\":5314:5318   */\n      0x24\n        /* \"#utility.yul\":5311:5312   */\n      0x00\n        /* \"#utility.yul\":5304:5319   */\n      revert\n        /* \"#utility.yul\":5454:5571   */\n    tag_56:\n        /* \"#utility.yul\":5563:5564   */\n      0x00\n        /* \"#utility.yul\":5560:5561   */\n      dup1\n        /* \"#utility.yul\":5553:5565   */\n      revert\n        /* \"#utility.yul\":5577:5747   */\n    tag_67:\n        /* \"#utility.yul\":5717:5739   */\n      0x496e73756666696369656e742062616c616e6365000000000000000000000000\n        /* \"#utility.yul\":5713:5714   */\n      0x00\n        /* \"#utility.yul\":5705:5711   */\n      dup3\n        /* \"#utility.yul\":5701:5715   */\n      add\n        /* \"#utility.yul\":5694:5740   */\n      mstore\n        /* \"#utility.yul\":5683:5747   */\n      pop\n      jump\t// out\n        /* \"#utility.yul\":5753:5980   */\n    tag_72:\n        /* \"#utility.yul\":5893:5927   */\n      0x5769746864726177616c20616d6f756e74206d75737420626520677265617465\n        /* \"#utility.yul\":5889:5890   */\n      0x00\n        /* \"#utility.yul\":5881:5887   */\n      dup3\n        /* \"#utility.yul\":5877:5891   */\n      add\n        /* \"#utility.yul\":5870:5928   */\n      mstore\n        /* \"#utility.yul\":5962:5972   */\n      0x72207468616e2030000000000000000000000000000000000000000000000000\n        /* \"#utility.yul\":5957:5959   */\n      0x20\n        /* \"#utility.yul\":5949:5955   */\n      dup3\n        /* \"#utility.yul\":5945:5960   */\n      add\n        /* \"#utility.yul\":5938:5973   */\n      mstore\n        /* \"#utility.yul\":5859:5980   */\n      pop\n      jump\t// out\n        /* \"#utility.yul\":5986:6154   */\n    tag_77:\n        /* \"#utility.yul\":6126:6146   */\n      0x4465706f7369742063616e277420626520300000000000000000000000000000\n        /* \"#utility.yul\":6122:6123   */\n      0x00\n        /* \"#utility.yul\":6114:6120   */\n      dup3\n        /* \"#utility.yul\":6110:6124   */\n      add\n        /* \"#utility.yul\":6103:6147   */\n      mstore\n        /* \"#utility.yul\":6092:6154   */\n      pop\n      jump\t// out\n        /* \"#utility.yul\":6160:6282   */\n    tag_48:\n        /* \"#utility.yul\":6233:6257   */\n      tag_123\n        /* \"#utility.yul\":6251:6256   */\n      dup2\n        /* \"#utility.yul\":6233:6257   */\n      tag_109\n      jump\t// in\n    tag_123:\n        /* \"#utility.yul\":6226:6231   */\n      dup2\n        /* \"#utility.yul\":6223:6258   */\n      eq\n        /* \"#utility.yul\":6213:6215   */\n      tag_124\n      jumpi\n        /* \"#utility.yul\":6272:6273   */\n      0x00\n        /* \"#utility.yul\":6269:6270   */\n      dup1\n        /* \"#utility.yul\":6262:6274   */\n      revert\n        /* \"#utility.yul\":6213:6215   */\n    tag_124:\n        /* \"#utility.yul\":6203:6282   */\n      pop\n      jump\t// out\n        /* \"#utility.yul\":6288:6410   */\n    tag_52:\n        /* \"#utility.yul\":6361:6385   */\n      tag_126\n        /* \"#utility.yul\":6379:6384   */\n      dup2\n        /* \"#utility.yul\":6361:6385   */\n      tag_81\n      jump\t// in\n    tag_126:\n        /* \"#utility.yul\":6354:6359   */\n      dup2\n        /* \"#utility.yul\":6351:6386   */\n      eq\n        /* \"#utility.yul\":6341:6343   */\n      tag_127\n      jumpi\n        /* \"#utility.yul\":6400:6401   */\n      0x00\n        /* \"#utility.yul\":6397:6398   */\n      dup1\n        /* \"#utility.yul\":6390:6402   */\n      revert\n        /* \"#utility.yul\":6341:6343   */\n    tag_127:\n        /* \"#utility.yul\":6331:6410   */\n      pop\n      jump\t// out\n\n    auxdata: 0xa2646970667358221220b98c9765b5081f035e9368361450ebdede8a56178b661f89a49ae65c0d17c15164736f6c63430008050033\n}\n",
				"bytecode": {
					"linkReferences": {},
					"object": "608060405234801561001057600080fd5b5061072e806100206000396000f3fe60806040526004361061003f5760003560e01c80632e1a7d4d1461004457806360e0049c1461006d578063c1cfb99a146100aa578063d0e30db0146100d5575b600080fd5b34801561005057600080fd5b5061006b600480360381019061006691906103a4565b6100df565b005b34801561007957600080fd5b50610094600480360381019061008f9190610377565b610255565b6040516100a191906104a9565b60405180910390f35b3480156100b657600080fd5b506100bf61026d565b6040516100cc91906104a9565b60405180910390f35b6100dd6102b3565b005b60008111610122576040517f08c379a000000000000000000000000000000000000000000000000000000000815260040161011990610469565b60405180910390fd5b806000803373ffffffffffffffffffffffffffffffffffffffff1673ffffffffffffffffffffffffffffffffffffffff1681526020019081526020016000205410156101a3576040517f08c379a000000000000000000000000000000000000000000000000000000000815260040161019a90610449565b60405180910390fd5b806000803373ffffffffffffffffffffffffffffffffffffffff1673ffffffffffffffffffffffffffffffffffffffff16815260200190815260200160002060008282546101f19190610585565b925050819055503373ffffffffffffffffffffffffffffffffffffffff166108fc670de0b6b3a764000083610226919061052b565b9081150290604051600060405180830381858888f19350505050158015610251573d6000803e3d6000fd5b5050565b60006020528060005260406000206000915090505481565b60008060003373ffffffffffffffffffffffffffffffffffffffff1673ffffffffffffffffffffffffffffffffffffffff16815260200190815260200160002054905090565b600034116102f6576040517f08c379a00000000000000000000000000000000000000000000000000000000081526004016102ed90610489565b60405180910390fd5b346000803373ffffffffffffffffffffffffffffffffffffffff1673ffffffffffffffffffffffffffffffffffffffff168152602001908152602001600020600082825461034491906104d5565b92505081905550565b60008135905061035c816106ca565b92915050565b600081359050610371816106e1565b92915050565b60006020828403121561038d5761038c610624565b5b600061039b8482850161034d565b91505092915050565b6000602082840312156103ba576103b9610624565b5b60006103c884828501610362565b91505092915050565b60006103de6014836104c4565b91506103e982610629565b602082019050919050565b60006104016028836104c4565b915061040c82610652565b604082019050919050565b60006104246012836104c4565b915061042f826106a1565b602082019050919050565b610443816105eb565b82525050565b60006020820190508181036000830152610462816103d1565b9050919050565b60006020820190508181036000830152610482816103f4565b9050919050565b600060208201905081810360008301526104a281610417565b9050919050565b60006020820190506104be600083018461043a565b92915050565b600082825260208201905092915050565b60006104e0826105eb565b91506104eb836105eb565b9250827fffffffffffffffffffffffffffffffffffffffffffffffffffffffffffffffff038211156105205761051f6105f5565b5b828201905092915050565b6000610536826105eb565b9150610541836105eb565b9250817fffffffffffffffffffffffffffffffffffffffffffffffffffffffffffffffff048311821515161561057a576105796105f5565b5b828202905092915050565b6000610590826105eb565b915061059b836105eb565b9250828210156105ae576105ad6105f5565b5b828203905092915050565b60006105c4826105cb565b9050919050565b600073ffffffffffffffffffffffffffffffffffffffff82169050919050565b6000819050919050565b7f4e487b7100000000000000000000000000000000000000000000000000000000600052601160045260246000fd5b600080fd5b7f496e73756666696369656e742062616c616e6365000000000000000000000000600082015250565b7f5769746864726177616c20616d6f756e74206d7573742062652067726561746560008201527f72207468616e2030000000000000000000000000000000000000000000000000602082015250565b7f4465706f7369742063616e277420626520300000000000000000000000000000600082015250565b6106d3816105b9565b81146106de57600080fd5b50565b6106ea816105eb565b81146106f557600080fd5b5056fea2646970667358221220b98c9765b5081f035e9368361450ebdede8a56178b661f89a49ae65c0d17c15164736f6c63430008050033",
					"opcodes": "PUSH1 0x80 PUSH1 0x40 MSTORE CALLVALUE DUP1 ISZERO PUSH2 0x10 JUMPI PUSH1 0x0 DUP1 REVERT JUMPDEST POP PUSH2 0x72E DUP1 PUSH2 0x20 PUSH1 0x0 CODECOPY PUSH1 0x0 RETURN INVALID PUSH1 0x80 PUSH1 0x40 MSTORE PUSH1 0x4 CALLDATASIZE LT PUSH2 0x3F JUMPI PUSH1 0x0 CALLDATALOAD PUSH1 0xE0 SHR DUP1 PUSH4 0x2E1A7D4D EQ PUSH2 0x44 JUMPI DUP1 PUSH4 0x60E0049C EQ PUSH2 0x6D JUMPI DUP1 PUSH4 0xC1CFB99A EQ PUSH2 0xAA JUMPI DUP1 PUSH4 0xD0E30DB0 EQ PUSH2 0xD5 JUMPI JUMPDEST PUSH1 0x0 DUP1 REVERT JUMPDEST CALLVALUE DUP1 ISZERO PUSH2 0x50 JUMPI PUSH1 0x0 DUP1 REVERT JUMPDEST POP PUSH2 0x6B PUSH1 0x4 DUP1 CALLDATASIZE SUB DUP2 ADD SWAP1 PUSH2 0x66 SWAP2 SWAP1 PUSH2 0x3A4 JUMP JUMPDEST PUSH2 0xDF JUMP JUMPDEST STOP JUMPDEST CALLVALUE DUP1 ISZERO PUSH2 0x79 JUMPI PUSH1 0x0 DUP1 REVERT JUMPDEST POP PUSH2 0x94 PUSH1 0x4 DUP1 CALLDATASIZE SUB DUP2 ADD SWAP1 PUSH2 0x8F SWAP2 SWAP1 PUSH2 0x377 JUMP JUMPDEST PUSH2 0x255 JUMP JUMPDEST PUSH1 0x40 MLOAD PUSH2 0xA1 SWAP2 SWAP1 PUSH2 0x4A9 JUMP JUMPDEST PUSH1 0x40 MLOAD DUP1 SWAP2 SUB SWAP1 RETURN JUMPDEST CALLVALUE DUP1 ISZERO PUSH2 0xB6 JUMPI PUSH1 0x0 DUP1 REVERT JUMPDEST POP PUSH2 0xBF PUSH2 0x26D JUMP JUMPDEST PUSH1 0x40 MLOAD PUSH2 0xCC SWAP2 SWAP1 PUSH2 0x4A9 JUMP JUMPDEST PUSH1 0x40 MLOAD DUP1 SWAP2 SUB SWAP1 RETURN JUMPDEST PUSH2 0xDD PUSH2 0x2B3 JUMP JUMPDEST STOP JUMPDEST PUSH1 0x0 DUP2 GT PUSH2 0x122 JUMPI PUSH1 0x40 MLOAD PUSH32 0x8C379A000000000000000000000000000000000000000000000000000000000 DUP2 MSTORE PUSH1 0x4 ADD PUSH2 0x119 SWAP1 PUSH2 0x469 JUMP JUMPDEST PUSH1 0x40 MLOAD DUP1 SWAP2 SUB SWAP1 REVERT JUMPDEST DUP1 PUSH1 0x0 DUP1 CALLER PUSH20 0xFFFFFFFFFFFFFFFFFFFFFFFFFFFFFFFFFFFFFFFF AND PUSH20 0xFFFFFFFFFFFFFFFFFFFFFFFFFFFFFFFFFFFFFFFF AND DUP2 MSTORE PUSH1 0x20 ADD SWAP1 DUP2 MSTORE PUSH1 0x20 ADD PUSH1 0x0 KECCAK256 SLOAD LT ISZERO PUSH2 0x1A3 JUMPI PUSH1 0x40 MLOAD PUSH32 0x8C379A000000000000000000000000000000000000000000000000000000000 DUP2 MSTORE PUSH1 0x4 ADD PUSH2 0x19A SWAP1 PUSH2 0x449 JUMP JUMPDEST PUSH1 0x40 MLOAD DUP1 SWAP2 SUB SWAP1 REVERT JUMPDEST DUP1 PUSH1 0x0 DUP1 CALLER PUSH20 0xFFFFFFFFFFFFFFFFFFFFFFFFFFFFFFFFFFFFFFFF AND PUSH20 0xFFFFFFFFFFFFFFFFFFFFFFFFFFFFFFFFFFFFFFFF AND DUP2 MSTORE PUSH1 0x20 ADD SWAP1 DUP2 MSTORE PUSH1 0x20 ADD PUSH1 0x0 KECCAK256 PUSH1 0x0 DUP3 DUP3 SLOAD PUSH2 0x1F1 SWAP2 SWAP1 PUSH2 0x585 JUMP JUMPDEST SWAP3 POP POP DUP2 SWAP1 SSTORE POP CALLER PUSH20 0xFFFFFFFFFFFFFFFFFFFFFFFFFFFFFFFFFFFFFFFF AND PUSH2 0x8FC PUSH8 0xDE0B6B3A7640000 DUP4 PUSH2 0x226 SWAP2 SWAP1 PUSH2 0x52B JUMP JUMPDEST SWAP1 DUP2 ISZERO MUL SWAP1 PUSH1 0x40 MLOAD PUSH1 0x0 PUSH1 0x40 MLOAD DUP1 DUP4 SUB DUP2 DUP6 DUP9 DUP9 CALL SWAP4 POP POP POP POP ISZERO DUP1 ISZERO PUSH2 0x251 JUMPI RETURNDATASIZE PUSH1 0x0 DUP1 RETURNDATACOPY RETURNDATASIZE PUSH1 0x0 REVERT JUMPDEST POP POP JUMP JUMPDEST PUSH1 0x0 PUSH1 0x20 MSTORE DUP1 PUSH1 0x0 MSTORE PUSH1 0x40 PUSH1 0x0 KECCAK256 PUSH1 0x0 SWAP2 POP SWAP1 POP SLOAD DUP2 JUMP JUMPDEST PUSH1 0x0 DUP1 PUSH1 0x0 CALLER PUSH20 0xFFFFFFFFFFFFFFFFFFFFFFFFFFFFFFFFFFFFFFFF AND PUSH20 0xFFFFFFFFFFFFFFFFFFFFFFFFFFFFFFFFFFFFFFFF AND DUP2 MSTORE PUSH1 0x20 ADD SWAP1 DUP2 MSTORE PUSH1 0x20 ADD PUSH1 0x0 KECCAK256 SLOAD SWAP1 POP SWAP1 JUMP JUMPDEST PUSH1 0x0 CALLVALUE GT PUSH2 0x2F6 JUMPI PUSH1 0x40 MLOAD PUSH32 0x8C379A000000000000000000000000000000000000000000000000000000000 DUP2 MSTORE PUSH1 0x4 ADD PUSH2 0x2ED SWAP1 PUSH2 0x489 JUMP JUMPDEST PUSH1 0x40 MLOAD DUP1 SWAP2 SUB SWAP1 REVERT JUMPDEST CALLVALUE PUSH1 0x0 DUP1 CALLER PUSH20 0xFFFFFFFFFFFFFFFFFFFFFFFFFFFFFFFFFFFFFFFF AND PUSH20 0xFFFFFFFFFFFFFFFFFFFFFFFFFFFFFFFFFFFFFFFF AND DUP2 MSTORE PUSH1 0x20 ADD SWAP1 DUP2 MSTORE PUSH1 0x20 ADD PUSH1 0x0 KECCAK256 PUSH1 0x0 DUP3 DUP3 SLOAD PUSH2 0x344 SWAP2 SWAP1 PUSH2 0x4D5 JUMP JUMPDEST SWAP3 POP POP DUP2 SWAP1 SSTORE POP JUMP JUMPDEST PUSH1 0x0 DUP2 CALLDATALOAD SWAP1 POP PUSH2 0x35C DUP2 PUSH2 0x6CA JUMP JUMPDEST SWAP3 SWAP2 POP POP JUMP JUMPDEST PUSH1 0x0 DUP2 CALLDATALOAD SWAP1 POP PUSH2 0x371 DUP2 PUSH2 0x6E1 JUMP JUMPDEST SWAP3 SWAP2 POP POP JUMP JUMPDEST PUSH1 0x0 PUSH1 0x20 DUP3 DUP5 SUB SLT ISZERO PUSH2 0x38D JUMPI PUSH2 0x38C PUSH2 0x624 JUMP JUMPDEST JUMPDEST PUSH1 0x0 PUSH2 0x39B DUP5 DUP3 DUP6 ADD PUSH2 0x34D JUMP JUMPDEST SWAP2 POP POP SWAP3 SWAP2 POP POP JUMP JUMPDEST PUSH1 0x0 PUSH1 0x20 DUP3 DUP5 SUB SLT ISZERO PUSH2 0x3BA JUMPI PUSH2 0x3B9 PUSH2 0x624 JUMP JUMPDEST JUMPDEST PUSH1 0x0 PUSH2 0x3C8 DUP5 DUP3 DUP6 ADD PUSH2 0x362 JUMP JUMPDEST SWAP2 POP POP SWAP3 SWAP2 POP POP JUMP JUMPDEST PUSH1 0x0 PUSH2 0x3DE PUSH1 0x14 DUP4 PUSH2 0x4C4 JUMP JUMPDEST SWAP2 POP PUSH2 0x3E9 DUP3 PUSH2 0x629 JUMP JUMPDEST PUSH1 0x20 DUP3 ADD SWAP1 POP SWAP2 SWAP1 POP JUMP JUMPDEST PUSH1 0x0 PUSH2 0x401 PUSH1 0x28 DUP4 PUSH2 0x4C4 JUMP JUMPDEST SWAP2 POP PUSH2 0x40C DUP3 PUSH2 0x652 JUMP JUMPDEST PUSH1 0x40 DUP3 ADD SWAP1 POP SWAP2 SWAP1 POP JUMP JUMPDEST PUSH1 0x0 PUSH2 0x424 PUSH1 0x12 DUP4 PUSH2 0x4C4 JUMP JUMPDEST SWAP2 POP PUSH2 0x42F DUP3 PUSH2 0x6A1 JUMP JUMPDEST PUSH1 0x20 DUP3 ADD SWAP1 POP SWAP2 SWAP1 POP JUMP JUMPDEST PUSH2 0x443 DUP2 PUSH2 0x5EB JUMP JUMPDEST DUP3 MSTORE POP POP JUMP JUMPDEST PUSH1 0x0 PUSH1 0x20 DUP3 ADD SWAP1 POP DUP2 DUP2 SUB PUSH1 0x0 DUP4 ADD MSTORE PUSH2 0x462 DUP2 PUSH2 0x3D1 JUMP JUMPDEST SWAP1 POP SWAP2 SWAP1 POP JUMP JUMPDEST PUSH1 0x0 PUSH1 0x20 DUP3 ADD SWAP1 POP DUP2 DUP2 SUB PUSH1 0x0 DUP4 ADD MSTORE PUSH2 0x482 DUP2 PUSH2 0x3F4 JUMP JUMPDEST SWAP1 POP SWAP2 SWAP1 POP JUMP JUMPDEST PUSH1 0x0 PUSH1 0x20 DUP3 ADD SWAP1 POP DUP2 DUP2 SUB PUSH1 0x0 DUP4 ADD MSTORE PUSH2 0x4A2 DUP2 PUSH2 0x417 JUMP JUMPDEST SWAP1 POP SWAP2 SWAP1 POP JUMP JUMPDEST PUSH1 0x0 PUSH1 0x20 DUP3 ADD SWAP1 POP PUSH2 0x4BE PUSH1 0x0 DUP4 ADD DUP5 PUSH2 0x43A JUMP JUMPDEST SWAP3 SWAP2 POP POP JUMP JUMPDEST PUSH1 0x0 DUP3 DUP3 MSTORE PUSH1 0x20 DUP3 ADD SWAP1 POP SWAP3 SWAP2 POP POP JUMP JUMPDEST PUSH1 0x0 PUSH2 0x4E0 DUP3 PUSH2 0x5EB JUMP JUMPDEST SWAP2 POP PUSH2 0x4EB DUP4 PUSH2 0x5EB JUMP JUMPDEST SWAP3 POP DUP3 PUSH32 0xFFFFFFFFFFFFFFFFFFFFFFFFFFFFFFFFFFFFFFFFFFFFFFFFFFFFFFFFFFFFFFFF SUB DUP3 GT ISZERO PUSH2 0x520 JUMPI PUSH2 0x51F PUSH2 0x5F5 JUMP JUMPDEST JUMPDEST DUP3 DUP3 ADD SWAP1 POP SWAP3 SWAP2 POP POP JUMP JUMPDEST PUSH1 0x0 PUSH2 0x536 DUP3 PUSH2 0x5EB JUMP JUMPDEST SWAP2 POP PUSH2 0x541 DUP4 PUSH2 0x5EB JUMP JUMPDEST SWAP3 POP DUP2 PUSH32 0xFFFFFFFFFFFFFFFFFFFFFFFFFFFFFFFFFFFFFFFFFFFFFFFFFFFFFFFFFFFFFFFF DIV DUP4 GT DUP3 ISZERO ISZERO AND ISZERO PUSH2 0x57A JUMPI PUSH2 0x579 PUSH2 0x5F5 JUMP JUMPDEST JUMPDEST DUP3 DUP3 MUL SWAP1 POP SWAP3 SWAP2 POP POP JUMP JUMPDEST PUSH1 0x0 PUSH2 0x590 DUP3 PUSH2 0x5EB JUMP JUMPDEST SWAP2 POP PUSH2 0x59B DUP4 PUSH2 0x5EB JUMP JUMPDEST SWAP3 POP DUP3 DUP3 LT ISZERO PUSH2 0x5AE JUMPI PUSH2 0x5AD PUSH2 0x5F5 JUMP JUMPDEST JUMPDEST DUP3 DUP3 SUB SWAP1 POP SWAP3 SWAP2 POP POP JUMP JUMPDEST PUSH1 0x0 PUSH2 0x5C4 DUP3 PUSH2 0x5CB JUMP JUMPDEST SWAP1 POP SWAP2 SWAP1 POP JUMP JUMPDEST PUSH1 0x0 PUSH20 0xFFFFFFFFFFFFFFFFFFFFFFFFFFFFFFFFFFFFFFFF DUP3 AND SWAP1 POP SWAP2 SWAP1 POP JUMP JUMPDEST PUSH1 0x0 DUP2 SWAP1 POP SWAP2 SWAP1 POP JUMP JUMPDEST PUSH32 0x4E487B7100000000000000000000000000000000000000000000000000000000 PUSH1 0x0 MSTORE PUSH1 0x11 PUSH1 0x4 MSTORE PUSH1 0x24 PUSH1 0x0 REVERT JUMPDEST PUSH1 0x0 DUP1 REVERT JUMPDEST PUSH32 0x496E73756666696369656E742062616C616E6365000000000000000000000000 PUSH1 0x0 DUP3 ADD MSTORE POP JUMP JUMPDEST PUSH32 0x5769746864726177616C20616D6F756E74206D75737420626520677265617465 PUSH1 0x0 DUP3 ADD MSTORE PUSH32 0x72207468616E2030000000000000000000000000000000000000000000000000 PUSH1 0x20 DUP3 ADD MSTORE POP JUMP JUMPDEST PUSH32 0x4465706F7369742063616E277420626520300000000000000000000000000000 PUSH1 0x0 DUP3 ADD MSTORE POP JUMP JUMPDEST PUSH2 0x6D3 DUP2 PUSH2 0x5B9 JUMP JUMPDEST DUP2 EQ PUSH2 0x6DE JUMPI PUSH1 0x0 DUP1 REVERT JUMPDEST POP JUMP JUMPDEST PUSH2 0x6EA DUP2 PUSH2 0x5EB JUMP JUMPDEST DUP2 EQ PUSH2 0x6F5 JUMPI PUSH1 0x0 DUP1 REVERT JUMPDEST POP JUMP INVALID LOG2 PUSH5 0x6970667358 0x22 SLT KECCAK256 0xB9 DUP13 SWAP8 PUSH6 0xB5081F035E93 PUSH9 0x361450EBDEDE8A5617 DUP12 PUSH7 0x1F89A49AE65C0D OR 0xC1 MLOAD PUSH5 0x736F6C6343 STOP ADDMOD SDIV STOP CALLER "
				},
				"gasEstimates": {
					"creation": {
						"codeDepositCost": "367600",
						"executionCost": "405",
						"totalCost": "368005"
					},
					"external": {
						"deposit()": "infinite",
						"get_balance()": "2548",
						"user_account(address)": "2814",
						"withdraw(uint256)": "infinite"
					}
				},
				"methodIdentifiers": {
					"deposit()": "d0e30db0",
					"get_balance()": "c1cfb99a",
					"user_account(address)": "60e0049c",
					"withdraw(uint256)": "2e1a7d4d"
				}
			},
			"storageLayout": {
				"storage": [
					{
						"astId": 5,
						"contract": "DappWorld/easy/transaction.sol:MyContract",
						"label": "user_account",
						"offset": 0,
						"slot": "0",
						"type": "t_mapping(t_address,t_uint256)"
					}
				],
				"types": {
					"t_address": {
						"encoding": "inplace",
						"label": "address",
						"numberOfBytes": "20"
					},
					"t_mapping(t_address,t_uint256)": {
						"encoding": "mapping",
						"key": "t_address",
						"label": "mapping(address => uint256)",
						"numberOfBytes": "32",
						"value": "t_uint256"
					},
					"t_uint256": {
						"encoding": "inplace",
						"label": "uint256",
						"numberOfBytes": "32"
					}
				}
			},
			"userdoc": {
				"kind": "user",
				"methods": {},
				"version": 1
			}
		}
	}
}