{
	"DappWorld/easy/LCM.sol": {
		"LCM": {
			"abi": [
				{
					"inputs": [
						{
							"internalType": "uint256",
							"name": "a",
							"type": "uint256"
						},
						{
							"internalType": "uint256",
							"name": "b",
							"type": "uint256"
						}
					],
					"name": "lcm",
					"outputs": [
						{
							"internalType": "uint256",
							"name": "",
							"type": "uint256"
						}
					],
					"stateMutability": "pure",
					"type": "function"
				}
			],
			"devdoc": {
				"kind": "dev",
				"methods": {},
				"version": 1
			},
			"evm": {
				"assembly": "    /* \"DappWorld/easy/LCM.sol\":61:622  contract LCM {... */\n  mstore(0x40, 0x80)\n  callvalue\n  dup1\n  iszero\n  tag_1\n  jumpi\n  0x00\n  dup1\n  revert\ntag_1:\n  pop\n  dataSize(sub_0)\n  dup1\n  dataOffset(sub_0)\n  0x00\n  codecopy\n  0x00\n  return\nstop\n\nsub_0: assembly {\n        /* \"DappWorld/easy/LCM.sol\":61:622  contract LCM {... */\n      mstore(0x40, 0x80)\n      callvalue\n      dup1\n      iszero\n      tag_1\n      jumpi\n      0x00\n      dup1\n      revert\n    tag_1:\n      pop\n      jumpi(tag_2, lt(calldatasize, 0x04))\n      shr(0xe0, calldataload(0x00))\n      dup1\n      0x4471ad9d\n      eq\n      tag_3\n      jumpi\n    tag_2:\n      0x00\n      dup1\n      revert\n        /* \"DappWorld/easy/LCM.sol\":442:619  function lcm(uint a, uint b) public pure returns (uint) {... */\n    tag_3:\n      tag_4\n      0x04\n      dup1\n      calldatasize\n      sub\n      dup2\n      add\n      swap1\n      tag_5\n      swap2\n      swap1\n      tag_6\n      jump\t// in\n    tag_5:\n      tag_7\n      jump\t// in\n    tag_4:\n      mload(0x40)\n      tag_8\n      swap2\n      swap1\n      tag_9\n      jump\t// in\n    tag_8:\n      mload(0x40)\n      dup1\n      swap2\n      sub\n      swap1\n      return\n    tag_7:\n        /* \"DappWorld/easy/LCM.sol\":492:496  uint */\n      0x00\n        /* \"DappWorld/easy/LCM.sol\":521:522  0 */\n      dup1\n        /* \"DappWorld/easy/LCM.sol\":517:518  a */\n      dup4\n        /* \"DappWorld/easy/LCM.sol\":517:522  a > 0 */\n      gt\n        /* \"DappWorld/easy/LCM.sol\":517:531  a > 0 && b > 0 */\n      dup1\n      iszero\n      tag_11\n      jumpi\n      pop\n        /* \"DappWorld/easy/LCM.sol\":530:531  0 */\n      0x00\n        /* \"DappWorld/easy/LCM.sol\":526:527  b */\n      dup3\n        /* \"DappWorld/easy/LCM.sol\":526:531  b > 0 */\n      gt\n        /* \"DappWorld/easy/LCM.sol\":517:531  a > 0 && b > 0 */\n    tag_11:\n        /* \"DappWorld/easy/LCM.sol\":509:574  require(a > 0 && b > 0, \"Both numbers must be greater than zero\") */\n      tag_12\n      jumpi\n      mload(0x40)\n      0x08c379a000000000000000000000000000000000000000000000000000000000\n      dup2\n      mstore\n      0x04\n      add\n      tag_13\n      swap1\n      tag_14\n      jump\t// in\n    tag_13:\n      mload(0x40)\n      dup1\n      swap2\n      sub\n      swap1\n      revert\n    tag_12:\n        /* \"DappWorld/easy/LCM.sol\":602:611  gcd(a, b) */\n      tag_15\n        /* \"DappWorld/easy/LCM.sol\":606:607  a */\n      dup4\n        /* \"DappWorld/easy/LCM.sol\":609:610  b */\n      dup4\n        /* \"DappWorld/easy/LCM.sol\":602:605  gcd */\n      tag_16\n        /* \"DappWorld/easy/LCM.sol\":602:611  gcd(a, b) */\n      jump\t// in\n    tag_15:\n        /* \"DappWorld/easy/LCM.sol\":597:598  b */\n      dup3\n        /* \"DappWorld/easy/LCM.sol\":593:594  a */\n      dup5\n        /* \"DappWorld/easy/LCM.sol\":593:598  a * b */\n      tag_17\n      swap2\n      swap1\n      tag_18\n      jump\t// in\n    tag_17:\n        /* \"DappWorld/easy/LCM.sol\":592:611  (a * b) / gcd(a, b) */\n      tag_19\n      swap2\n      swap1\n      tag_20\n      jump\t// in\n    tag_19:\n        /* \"DappWorld/easy/LCM.sol\":585:611  return (a * b) / gcd(a, b) */\n      swap1\n      pop\n        /* \"DappWorld/easy/LCM.sol\":442:619  function lcm(uint a, uint b) public pure returns (uint) {... */\n      swap3\n      swap2\n      pop\n      pop\n      jump\t// out\n        /* \"DappWorld/easy/LCM.sol\":160:357  function gcd(uint a, uint b) internal pure returns (uint) {... */\n    tag_16:\n        /* \"DappWorld/easy/LCM.sol\":212:216  uint */\n      0x00\n        /* \"DappWorld/easy/LCM.sol\":229:331  while (b != 0) {... */\n    tag_22:\n        /* \"DappWorld/easy/LCM.sol\":241:242  0 */\n      0x00\n        /* \"DappWorld/easy/LCM.sol\":236:237  b */\n      dup3\n        /* \"DappWorld/easy/LCM.sol\":236:242  b != 0 */\n      eq\n        /* \"DappWorld/easy/LCM.sol\":229:331  while (b != 0) {... */\n      tag_23\n      jumpi\n        /* \"DappWorld/easy/LCM.sol\":259:268  uint temp */\n      0x00\n        /* \"DappWorld/easy/LCM.sol\":271:272  b */\n      dup3\n        /* \"DappWorld/easy/LCM.sol\":259:272  uint temp = b */\n      swap1\n      pop\n        /* \"DappWorld/easy/LCM.sol\":295:296  b */\n      dup3\n        /* \"DappWorld/easy/LCM.sol\":291:292  a */\n      dup5\n        /* \"DappWorld/easy/LCM.sol\":291:296  a % b */\n      tag_24\n      swap2\n      swap1\n      tag_25\n      jump\t// in\n    tag_24:\n        /* \"DappWorld/easy/LCM.sol\":287:296  b = a % b */\n      swap3\n      pop\n        /* \"DappWorld/easy/LCM.sol\":315:319  temp */\n      dup1\n        /* \"DappWorld/easy/LCM.sol\":311:319  a = temp */\n      swap4\n      pop\n        /* \"DappWorld/easy/LCM.sol\":244:331  {... */\n      pop\n        /* \"DappWorld/easy/LCM.sol\":229:331  while (b != 0) {... */\n      jump(tag_22)\n    tag_23:\n        /* \"DappWorld/easy/LCM.sol\":348:349  a */\n      dup3\n        /* \"DappWorld/easy/LCM.sol\":341:349  return a */\n      swap1\n      pop\n        /* \"DappWorld/easy/LCM.sol\":160:357  function gcd(uint a, uint b) internal pure returns (uint) {... */\n      swap3\n      swap2\n      pop\n      pop\n      jump\t// out\n        /* \"#utility.yul\":88:205   */\n    tag_27:\n        /* \"#utility.yul\":197:198   */\n      0x00\n        /* \"#utility.yul\":194:195   */\n      dup1\n        /* \"#utility.yul\":187:199   */\n      revert\n        /* \"#utility.yul\":334:411   */\n    tag_29:\n        /* \"#utility.yul\":371:378   */\n      0x00\n        /* \"#utility.yul\":400:405   */\n      dup2\n        /* \"#utility.yul\":389:405   */\n      swap1\n      pop\n        /* \"#utility.yul\":334:411   */\n      swap2\n      swap1\n      pop\n      jump\t// out\n        /* \"#utility.yul\":417:539   */\n    tag_30:\n        /* \"#utility.yul\":490:514   */\n      tag_44\n        /* \"#utility.yul\":508:513   */\n      dup2\n        /* \"#utility.yul\":490:514   */\n      tag_29\n      jump\t// in\n    tag_44:\n        /* \"#utility.yul\":483:488   */\n      dup2\n        /* \"#utility.yul\":480:515   */\n      eq\n        /* \"#utility.yul\":470:533   */\n      tag_45\n      jumpi\n        /* \"#utility.yul\":529:530   */\n      0x00\n        /* \"#utility.yul\":526:527   */\n      dup1\n        /* \"#utility.yul\":519:531   */\n      revert\n        /* \"#utility.yul\":470:533   */\n    tag_45:\n        /* \"#utility.yul\":417:539   */\n      pop\n      jump\t// out\n        /* \"#utility.yul\":545:684   */\n    tag_31:\n        /* \"#utility.yul\":591:596   */\n      0x00\n        /* \"#utility.yul\":629:635   */\n      dup2\n        /* \"#utility.yul\":616:636   */\n      calldataload\n        /* \"#utility.yul\":607:636   */\n      swap1\n      pop\n        /* \"#utility.yul\":645:678   */\n      tag_47\n        /* \"#utility.yul\":672:677   */\n      dup2\n        /* \"#utility.yul\":645:678   */\n      tag_30\n      jump\t// in\n    tag_47:\n        /* \"#utility.yul\":545:684   */\n      swap3\n      swap2\n      pop\n      pop\n      jump\t// out\n        /* \"#utility.yul\":690:1164   */\n    tag_6:\n        /* \"#utility.yul\":758:764   */\n      0x00\n        /* \"#utility.yul\":766:772   */\n      dup1\n        /* \"#utility.yul\":815:817   */\n      0x40\n        /* \"#utility.yul\":803:812   */\n      dup4\n        /* \"#utility.yul\":794:801   */\n      dup6\n        /* \"#utility.yul\":790:813   */\n      sub\n        /* \"#utility.yul\":786:818   */\n      slt\n        /* \"#utility.yul\":783:902   */\n      iszero\n      tag_49\n      jumpi\n        /* \"#utility.yul\":821:900   */\n      tag_50\n      tag_27\n      jump\t// in\n    tag_50:\n        /* \"#utility.yul\":783:902   */\n    tag_49:\n        /* \"#utility.yul\":941:942   */\n      0x00\n        /* \"#utility.yul\":966:1019   */\n      tag_51\n        /* \"#utility.yul\":1011:1018   */\n      dup6\n        /* \"#utility.yul\":1002:1008   */\n      dup3\n        /* \"#utility.yul\":991:1000   */\n      dup7\n        /* \"#utility.yul\":987:1009   */\n      add\n        /* \"#utility.yul\":966:1019   */\n      tag_31\n      jump\t// in\n    tag_51:\n        /* \"#utility.yul\":956:1019   */\n      swap3\n      pop\n        /* \"#utility.yul\":912:1029   */\n      pop\n        /* \"#utility.yul\":1068:1070   */\n      0x20\n        /* \"#utility.yul\":1094:1147   */\n      tag_52\n        /* \"#utility.yul\":1139:1146   */\n      dup6\n        /* \"#utility.yul\":1130:1136   */\n      dup3\n        /* \"#utility.yul\":1119:1128   */\n      dup7\n        /* \"#utility.yul\":1115:1137   */\n      add\n        /* \"#utility.yul\":1094:1147   */\n      tag_31\n      jump\t// in\n    tag_52:\n        /* \"#utility.yul\":1084:1147   */\n      swap2\n      pop\n        /* \"#utility.yul\":1039:1157   */\n      pop\n        /* \"#utility.yul\":690:1164   */\n      swap3\n      pop\n      swap3\n      swap1\n      pop\n      jump\t// out\n        /* \"#utility.yul\":1170:1288   */\n    tag_32:\n        /* \"#utility.yul\":1257:1281   */\n      tag_54\n        /* \"#utility.yul\":1275:1280   */\n      dup2\n        /* \"#utility.yul\":1257:1281   */\n      tag_29\n      jump\t// in\n    tag_54:\n        /* \"#utility.yul\":1252:1255   */\n      dup3\n        /* \"#utility.yul\":1245:1282   */\n      mstore\n        /* \"#utility.yul\":1170:1288   */\n      pop\n      pop\n      jump\t// out\n        /* \"#utility.yul\":1294:1516   */\n    tag_9:\n        /* \"#utility.yul\":1387:1391   */\n      0x00\n        /* \"#utility.yul\":1425:1427   */\n      0x20\n        /* \"#utility.yul\":1414:1423   */\n      dup3\n        /* \"#utility.yul\":1410:1428   */\n      add\n        /* \"#utility.yul\":1402:1428   */\n      swap1\n      pop\n        /* \"#utility.yul\":1438:1509   */\n      tag_56\n        /* \"#utility.yul\":1506:1507   */\n      0x00\n        /* \"#utility.yul\":1495:1504   */\n      dup4\n        /* \"#utility.yul\":1491:1508   */\n      add\n        /* \"#utility.yul\":1482:1488   */\n      dup5\n        /* \"#utility.yul\":1438:1509   */\n      tag_32\n      jump\t// in\n    tag_56:\n        /* \"#utility.yul\":1294:1516   */\n      swap3\n      swap2\n      pop\n      pop\n      jump\t// out\n        /* \"#utility.yul\":1522:1691   */\n    tag_33:\n        /* \"#utility.yul\":1606:1617   */\n      0x00\n        /* \"#utility.yul\":1640:1646   */\n      dup3\n        /* \"#utility.yul\":1635:1638   */\n      dup3\n        /* \"#utility.yul\":1628:1647   */\n      mstore\n        /* \"#utility.yul\":1680:1684   */\n      0x20\n        /* \"#utility.yul\":1675:1678   */\n      dup3\n        /* \"#utility.yul\":1671:1685   */\n      add\n        /* \"#utility.yul\":1656:1685   */\n      swap1\n      pop\n        /* \"#utility.yul\":1522:1691   */\n      swap3\n      swap2\n      pop\n      pop\n      jump\t// out\n        /* \"#utility.yul\":1697:1922   */\n    tag_34:\n        /* \"#utility.yul\":1837:1871   */\n      0x426f7468206e756d62657273206d757374206265206772656174657220746861\n        /* \"#utility.yul\":1833:1834   */\n      0x00\n        /* \"#utility.yul\":1825:1831   */\n      dup3\n        /* \"#utility.yul\":1821:1835   */\n      add\n        /* \"#utility.yul\":1814:1872   */\n      mstore\n        /* \"#utility.yul\":1906:1914   */\n      0x6e207a65726f0000000000000000000000000000000000000000000000000000\n        /* \"#utility.yul\":1901:1903   */\n      0x20\n        /* \"#utility.yul\":1893:1899   */\n      dup3\n        /* \"#utility.yul\":1889:1904   */\n      add\n        /* \"#utility.yul\":1882:1915   */\n      mstore\n        /* \"#utility.yul\":1697:1922   */\n      pop\n      jump\t// out\n        /* \"#utility.yul\":1928:2294   */\n    tag_35:\n        /* \"#utility.yul\":2070:2073   */\n      0x00\n        /* \"#utility.yul\":2091:2158   */\n      tag_60\n        /* \"#utility.yul\":2155:2157   */\n      0x26\n        /* \"#utility.yul\":2150:2153   */\n      dup4\n        /* \"#utility.yul\":2091:2158   */\n      tag_33\n      jump\t// in\n    tag_60:\n        /* \"#utility.yul\":2084:2158   */\n      swap2\n      pop\n        /* \"#utility.yul\":2167:2260   */\n      tag_61\n        /* \"#utility.yul\":2256:2259   */\n      dup3\n        /* \"#utility.yul\":2167:2260   */\n      tag_34\n      jump\t// in\n    tag_61:\n        /* \"#utility.yul\":2285:2287   */\n      0x40\n        /* \"#utility.yul\":2280:2283   */\n      dup3\n        /* \"#utility.yul\":2276:2288   */\n      add\n        /* \"#utility.yul\":2269:2288   */\n      swap1\n      pop\n        /* \"#utility.yul\":1928:2294   */\n      swap2\n      swap1\n      pop\n      jump\t// out\n        /* \"#utility.yul\":2300:2719   */\n    tag_14:\n        /* \"#utility.yul\":2466:2470   */\n      0x00\n        /* \"#utility.yul\":2504:2506   */\n      0x20\n        /* \"#utility.yul\":2493:2502   */\n      dup3\n        /* \"#utility.yul\":2489:2507   */\n      add\n        /* \"#utility.yul\":2481:2507   */\n      swap1\n      pop\n        /* \"#utility.yul\":2553:2562   */\n      dup2\n        /* \"#utility.yul\":2547:2551   */\n      dup2\n        /* \"#utility.yul\":2543:2563   */\n      sub\n        /* \"#utility.yul\":2539:2540   */\n      0x00\n        /* \"#utility.yul\":2528:2537   */\n      dup4\n        /* \"#utility.yul\":2524:2541   */\n      add\n        /* \"#utility.yul\":2517:2564   */\n      mstore\n        /* \"#utility.yul\":2581:2712   */\n      tag_63\n        /* \"#utility.yul\":2707:2711   */\n      dup2\n        /* \"#utility.yul\":2581:2712   */\n      tag_35\n      jump\t// in\n    tag_63:\n        /* \"#utility.yul\":2573:2712   */\n      swap1\n      pop\n        /* \"#utility.yul\":2300:2719   */\n      swap2\n      swap1\n      pop\n      jump\t// out\n        /* \"#utility.yul\":2725:2905   */\n    tag_36:\n        /* \"#utility.yul\":2773:2850   */\n      0x4e487b7100000000000000000000000000000000000000000000000000000000\n        /* \"#utility.yul\":2770:2771   */\n      0x00\n        /* \"#utility.yul\":2763:2851   */\n      mstore\n        /* \"#utility.yul\":2870:2874   */\n      0x11\n        /* \"#utility.yul\":2867:2868   */\n      0x04\n        /* \"#utility.yul\":2860:2875   */\n      mstore\n        /* \"#utility.yul\":2894:2898   */\n      0x24\n        /* \"#utility.yul\":2891:2892   */\n      0x00\n        /* \"#utility.yul\":2884:2899   */\n      revert\n        /* \"#utility.yul\":2911:3321   */\n    tag_18:\n        /* \"#utility.yul\":2951:2958   */\n      0x00\n        /* \"#utility.yul\":2974:2994   */\n      tag_66\n        /* \"#utility.yul\":2992:2993   */\n      dup3\n        /* \"#utility.yul\":2974:2994   */\n      tag_29\n      jump\t// in\n    tag_66:\n        /* \"#utility.yul\":2969:2994   */\n      swap2\n      pop\n        /* \"#utility.yul\":3008:3028   */\n      tag_67\n        /* \"#utility.yul\":3026:3027   */\n      dup4\n        /* \"#utility.yul\":3008:3028   */\n      tag_29\n      jump\t// in\n    tag_67:\n        /* \"#utility.yul\":3003:3028   */\n      swap3\n      pop\n        /* \"#utility.yul\":3063:3064   */\n      dup3\n        /* \"#utility.yul\":3060:3061   */\n      dup3\n        /* \"#utility.yul\":3056:3065   */\n      mul\n        /* \"#utility.yul\":3085:3115   */\n      tag_68\n        /* \"#utility.yul\":3103:3114   */\n      dup2\n        /* \"#utility.yul\":3085:3115   */\n      tag_29\n      jump\t// in\n    tag_68:\n        /* \"#utility.yul\":3074:3115   */\n      swap2\n      pop\n        /* \"#utility.yul\":3264:3265   */\n      dup3\n        /* \"#utility.yul\":3255:3262   */\n      dup3\n        /* \"#utility.yul\":3251:3266   */\n      div\n        /* \"#utility.yul\":3248:3249   */\n      dup5\n        /* \"#utility.yul\":3245:3267   */\n      eq\n        /* \"#utility.yul\":3225:3226   */\n      dup4\n        /* \"#utility.yul\":3218:3227   */\n      iszero\n        /* \"#utility.yul\":3198:3281   */\n      or\n        /* \"#utility.yul\":3175:3314   */\n      tag_69\n      jumpi\n        /* \"#utility.yul\":3294:3312   */\n      tag_70\n      tag_36\n      jump\t// in\n    tag_70:\n        /* \"#utility.yul\":3175:3314   */\n    tag_69:\n        /* \"#utility.yul\":2959:3321   */\n      pop\n        /* \"#utility.yul\":2911:3321   */\n      swap3\n      swap2\n      pop\n      pop\n      jump\t// out\n        /* \"#utility.yul\":3327:3507   */\n    tag_37:\n        /* \"#utility.yul\":3375:3452   */\n      0x4e487b7100000000000000000000000000000000000000000000000000000000\n        /* \"#utility.yul\":3372:3373   */\n      0x00\n        /* \"#utility.yul\":3365:3453   */\n      mstore\n        /* \"#utility.yul\":3472:3476   */\n      0x12\n        /* \"#utility.yul\":3469:3470   */\n      0x04\n        /* \"#utility.yul\":3462:3477   */\n      mstore\n        /* \"#utility.yul\":3496:3500   */\n      0x24\n        /* \"#utility.yul\":3493:3494   */\n      0x00\n        /* \"#utility.yul\":3486:3501   */\n      revert\n        /* \"#utility.yul\":3513:3698   */\n    tag_20:\n        /* \"#utility.yul\":3553:3554   */\n      0x00\n        /* \"#utility.yul\":3570:3590   */\n      tag_73\n        /* \"#utility.yul\":3588:3589   */\n      dup3\n        /* \"#utility.yul\":3570:3590   */\n      tag_29\n      jump\t// in\n    tag_73:\n        /* \"#utility.yul\":3565:3590   */\n      swap2\n      pop\n        /* \"#utility.yul\":3604:3624   */\n      tag_74\n        /* \"#utility.yul\":3622:3623   */\n      dup4\n        /* \"#utility.yul\":3604:3624   */\n      tag_29\n      jump\t// in\n    tag_74:\n        /* \"#utility.yul\":3599:3624   */\n      swap3\n      pop\n        /* \"#utility.yul\":3643:3644   */\n      dup3\n        /* \"#utility.yul\":3633:3668   */\n      tag_75\n      jumpi\n        /* \"#utility.yul\":3648:3666   */\n      tag_76\n      tag_37\n      jump\t// in\n    tag_76:\n        /* \"#utility.yul\":3633:3668   */\n    tag_75:\n        /* \"#utility.yul\":3690:3691   */\n      dup3\n        /* \"#utility.yul\":3687:3688   */\n      dup3\n        /* \"#utility.yul\":3683:3692   */\n      div\n        /* \"#utility.yul\":3678:3692   */\n      swap1\n      pop\n        /* \"#utility.yul\":3513:3698   */\n      swap3\n      swap2\n      pop\n      pop\n      jump\t// out\n        /* \"#utility.yul\":3704:3880   */\n    tag_25:\n        /* \"#utility.yul\":3736:3737   */\n      0x00\n        /* \"#utility.yul\":3753:3773   */\n      tag_78\n        /* \"#utility.yul\":3771:3772   */\n      dup3\n        /* \"#utility.yul\":3753:3773   */\n      tag_29\n      jump\t// in\n    tag_78:\n        /* \"#utility.yul\":3748:3773   */\n      swap2\n      pop\n        /* \"#utility.yul\":3787:3807   */\n      tag_79\n        /* \"#utility.yul\":3805:3806   */\n      dup4\n        /* \"#utility.yul\":3787:3807   */\n      tag_29\n      jump\t// in\n    tag_79:\n        /* \"#utility.yul\":3782:3807   */\n      swap3\n      pop\n        /* \"#utility.yul\":3826:3827   */\n      dup3\n        /* \"#utility.yul\":3816:3851   */\n      tag_80\n      jumpi\n        /* \"#utility.yul\":3831:3849   */\n      tag_81\n      tag_37\n      jump\t// in\n    tag_81:\n        /* \"#utility.yul\":3816:3851   */\n    tag_80:\n        /* \"#utility.yul\":3872:3873   */\n      dup3\n        /* \"#utility.yul\":3869:3870   */\n      dup3\n        /* \"#utility.yul\":3865:3874   */\n      mod\n        /* \"#utility.yul\":3860:3874   */\n      swap1\n      pop\n        /* \"#utility.yul\":3704:3880   */\n      swap3\n      swap2\n      pop\n      pop\n      jump\t// out\n\n    auxdata: 0xa2646970667358221220e3bb6c4f28edb491af946fcb020dc7aec53e978ea1a05b63b15e1a7fb3fae97c64736f6c63430008120033\n}\n",
				"bytecode": {
					"linkReferences": {},
					"object": "608060405234801561001057600080fd5b50610388806100206000396000f3fe608060405234801561001057600080fd5b506004361061002b5760003560e01c80634471ad9d14610030575b600080fd5b61004a60048036038101906100459190610143565b610060565b6040516100579190610192565b60405180910390f35b600080831180156100715750600082115b6100b0576040517f08c379a00000000000000000000000000000000000000000000000000000000081526004016100a790610230565b60405180910390fd5b6100ba83836100d8565b82846100c6919061027f565b6100d091906102f0565b905092915050565b60005b600082146100ff57600082905082846100f49190610321565b9250809350506100db565b82905092915050565b600080fd5b6000819050919050565b6101208161010d565b811461012b57600080fd5b50565b60008135905061013d81610117565b92915050565b6000806040838503121561015a57610159610108565b5b60006101688582860161012e565b92505060206101798582860161012e565b9150509250929050565b61018c8161010d565b82525050565b60006020820190506101a76000830184610183565b92915050565b600082825260208201905092915050565b7f426f7468206e756d62657273206d75737420626520677265617465722074686160008201527f6e207a65726f0000000000000000000000000000000000000000000000000000602082015250565b600061021a6026836101ad565b9150610225826101be565b604082019050919050565b600060208201905081810360008301526102498161020d565b9050919050565b7f4e487b7100000000000000000000000000000000000000000000000000000000600052601160045260246000fd5b600061028a8261010d565b91506102958361010d565b92508282026102a38161010d565b915082820484148315176102ba576102b9610250565b5b5092915050565b7f4e487b7100000000000000000000000000000000000000000000000000000000600052601260045260246000fd5b60006102fb8261010d565b91506103068361010d565b925082610316576103156102c1565b5b828204905092915050565b600061032c8261010d565b91506103378361010d565b925082610347576103466102c1565b5b82820690509291505056fea2646970667358221220e3bb6c4f28edb491af946fcb020dc7aec53e978ea1a05b63b15e1a7fb3fae97c64736f6c63430008120033",
					"opcodes": "PUSH1 0x80 PUSH1 0x40 MSTORE CALLVALUE DUP1 ISZERO PUSH2 0x10 JUMPI PUSH1 0x0 DUP1 REVERT JUMPDEST POP PUSH2 0x388 DUP1 PUSH2 0x20 PUSH1 0x0 CODECOPY PUSH1 0x0 RETURN INVALID PUSH1 0x80 PUSH1 0x40 MSTORE CALLVALUE DUP1 ISZERO PUSH2 0x10 JUMPI PUSH1 0x0 DUP1 REVERT JUMPDEST POP PUSH1 0x4 CALLDATASIZE LT PUSH2 0x2B JUMPI PUSH1 0x0 CALLDATALOAD PUSH1 0xE0 SHR DUP1 PUSH4 0x4471AD9D EQ PUSH2 0x30 JUMPI JUMPDEST PUSH1 0x0 DUP1 REVERT JUMPDEST PUSH2 0x4A PUSH1 0x4 DUP1 CALLDATASIZE SUB DUP2 ADD SWAP1 PUSH2 0x45 SWAP2 SWAP1 PUSH2 0x143 JUMP JUMPDEST PUSH2 0x60 JUMP JUMPDEST PUSH1 0x40 MLOAD PUSH2 0x57 SWAP2 SWAP1 PUSH2 0x192 JUMP JUMPDEST PUSH1 0x40 MLOAD DUP1 SWAP2 SUB SWAP1 RETURN JUMPDEST PUSH1 0x0 DUP1 DUP4 GT DUP1 ISZERO PUSH2 0x71 JUMPI POP PUSH1 0x0 DUP3 GT JUMPDEST PUSH2 0xB0 JUMPI PUSH1 0x40 MLOAD PUSH32 0x8C379A000000000000000000000000000000000000000000000000000000000 DUP2 MSTORE PUSH1 0x4 ADD PUSH2 0xA7 SWAP1 PUSH2 0x230 JUMP JUMPDEST PUSH1 0x40 MLOAD DUP1 SWAP2 SUB SWAP1 REVERT JUMPDEST PUSH2 0xBA DUP4 DUP4 PUSH2 0xD8 JUMP JUMPDEST DUP3 DUP5 PUSH2 0xC6 SWAP2 SWAP1 PUSH2 0x27F JUMP JUMPDEST PUSH2 0xD0 SWAP2 SWAP1 PUSH2 0x2F0 JUMP JUMPDEST SWAP1 POP SWAP3 SWAP2 POP POP JUMP JUMPDEST PUSH1 0x0 JUMPDEST PUSH1 0x0 DUP3 EQ PUSH2 0xFF JUMPI PUSH1 0x0 DUP3 SWAP1 POP DUP3 DUP5 PUSH2 0xF4 SWAP2 SWAP1 PUSH2 0x321 JUMP JUMPDEST SWAP3 POP DUP1 SWAP4 POP POP PUSH2 0xDB JUMP JUMPDEST DUP3 SWAP1 POP SWAP3 SWAP2 POP POP JUMP JUMPDEST PUSH1 0x0 DUP1 REVERT JUMPDEST PUSH1 0x0 DUP2 SWAP1 POP SWAP2 SWAP1 POP JUMP JUMPDEST PUSH2 0x120 DUP2 PUSH2 0x10D JUMP JUMPDEST DUP2 EQ PUSH2 0x12B JUMPI PUSH1 0x0 DUP1 REVERT JUMPDEST POP JUMP JUMPDEST PUSH1 0x0 DUP2 CALLDATALOAD SWAP1 POP PUSH2 0x13D DUP2 PUSH2 0x117 JUMP JUMPDEST SWAP3 SWAP2 POP POP JUMP JUMPDEST PUSH1 0x0 DUP1 PUSH1 0x40 DUP4 DUP6 SUB SLT ISZERO PUSH2 0x15A JUMPI PUSH2 0x159 PUSH2 0x108 JUMP JUMPDEST JUMPDEST PUSH1 0x0 PUSH2 0x168 DUP6 DUP3 DUP7 ADD PUSH2 0x12E JUMP JUMPDEST SWAP3 POP POP PUSH1 0x20 PUSH2 0x179 DUP6 DUP3 DUP7 ADD PUSH2 0x12E JUMP JUMPDEST SWAP2 POP POP SWAP3 POP SWAP3 SWAP1 POP JUMP JUMPDEST PUSH2 0x18C DUP2 PUSH2 0x10D JUMP JUMPDEST DUP3 MSTORE POP POP JUMP JUMPDEST PUSH1 0x0 PUSH1 0x20 DUP3 ADD SWAP1 POP PUSH2 0x1A7 PUSH1 0x0 DUP4 ADD DUP5 PUSH2 0x183 JUMP JUMPDEST SWAP3 SWAP2 POP POP JUMP JUMPDEST PUSH1 0x0 DUP3 DUP3 MSTORE PUSH1 0x20 DUP3 ADD SWAP1 POP SWAP3 SWAP2 POP POP JUMP JUMPDEST PUSH32 0x426F7468206E756D62657273206D757374206265206772656174657220746861 PUSH1 0x0 DUP3 ADD MSTORE PUSH32 0x6E207A65726F0000000000000000000000000000000000000000000000000000 PUSH1 0x20 DUP3 ADD MSTORE POP JUMP JUMPDEST PUSH1 0x0 PUSH2 0x21A PUSH1 0x26 DUP4 PUSH2 0x1AD JUMP JUMPDEST SWAP2 POP PUSH2 0x225 DUP3 PUSH2 0x1BE JUMP JUMPDEST PUSH1 0x40 DUP3 ADD SWAP1 POP SWAP2 SWAP1 POP JUMP JUMPDEST PUSH1 0x0 PUSH1 0x20 DUP3 ADD SWAP1 POP DUP2 DUP2 SUB PUSH1 0x0 DUP4 ADD MSTORE PUSH2 0x249 DUP2 PUSH2 0x20D JUMP JUMPDEST SWAP1 POP SWAP2 SWAP1 POP JUMP JUMPDEST PUSH32 0x4E487B7100000000000000000000000000000000000000000000000000000000 PUSH1 0x0 MSTORE PUSH1 0x11 PUSH1 0x4 MSTORE PUSH1 0x24 PUSH1 0x0 REVERT JUMPDEST PUSH1 0x0 PUSH2 0x28A DUP3 PUSH2 0x10D JUMP JUMPDEST SWAP2 POP PUSH2 0x295 DUP4 PUSH2 0x10D JUMP JUMPDEST SWAP3 POP DUP3 DUP3 MUL PUSH2 0x2A3 DUP2 PUSH2 0x10D JUMP JUMPDEST SWAP2 POP DUP3 DUP3 DIV DUP5 EQ DUP4 ISZERO OR PUSH2 0x2BA JUMPI PUSH2 0x2B9 PUSH2 0x250 JUMP JUMPDEST JUMPDEST POP SWAP3 SWAP2 POP POP JUMP JUMPDEST PUSH32 0x4E487B7100000000000000000000000000000000000000000000000000000000 PUSH1 0x0 MSTORE PUSH1 0x12 PUSH1 0x4 MSTORE PUSH1 0x24 PUSH1 0x0 REVERT JUMPDEST PUSH1 0x0 PUSH2 0x2FB DUP3 PUSH2 0x10D JUMP JUMPDEST SWAP2 POP PUSH2 0x306 DUP4 PUSH2 0x10D JUMP JUMPDEST SWAP3 POP DUP3 PUSH2 0x316 JUMPI PUSH2 0x315 PUSH2 0x2C1 JUMP JUMPDEST JUMPDEST DUP3 DUP3 DIV SWAP1 POP SWAP3 SWAP2 POP POP JUMP JUMPDEST PUSH1 0x0 PUSH2 0x32C DUP3 PUSH2 0x10D JUMP JUMPDEST SWAP2 POP PUSH2 0x337 DUP4 PUSH2 0x10D JUMP JUMPDEST SWAP3 POP DUP3 PUSH2 0x347 JUMPI PUSH2 0x346 PUSH2 0x2C1 JUMP JUMPDEST JUMPDEST DUP3 DUP3 MOD SWAP1 POP SWAP3 SWAP2 POP POP JUMP INVALID LOG2 PUSH5 0x6970667358 0x22 SLT KECCAK256 0xE3 0xBB PUSH13 0x4F28EDB491AF946FCB020DC7AE 0xC5 RETURNDATACOPY SWAP8 DUP15 LOG1 LOG0 JUMPDEST PUSH4 0xB15E1A7F 0xB3 STATICCALL 0xE9 PUSH29 0x64736F6C63430008120033000000000000000000000000000000000000 "
				},
				"gasEstimates": {
					"creation": {
						"codeDepositCost": "180800",
						"executionCost": "226",
						"totalCost": "181026"
					},
					"external": {
						"lcm(uint256,uint256)": "infinite"
					},
					"internal": {
						"gcd(uint256,uint256)": "infinite"
					}
				},
				"methodIdentifiers": {
					"lcm(uint256,uint256)": "4471ad9d"
				}
			},
			"storageLayout": {
				"storage": [],
				"types": null
			},
			"userdoc": {
				"kind": "user",
				"methods": {},
				"version": 1
			}
		}
	}
}